:020000040800F2
:10000000483100209D0100083717000895160008A8
:1000100035170008B10A00087D2B00080000000019
:100020000000000000000000000000002D1A000881
:1000300051120008000000000D180008191C0008EB
:10004000C3010008C3010008C3010008C301000880
:10005000C3010008C3010008C3010008C301000870
:10006000C3010008C3010008C3010008C301000860
:10007000C3010008C3010008C3010008C301000850
:10008000C3010008C3010008C3010008C301000840
:10009000C3010008C3010008C3010008C301000830
:1000A000C3010008C3010008C3010008C301000820
:1000B000C3010008791C0008C3010008C30100083F
:1000C000C3010008C3010008C3010008C301000800
:1000D000C3010008C3010008651D0008C301000832
:1000E00079120008C3010008DD170008C3010008E9
:1000F000C3010008C3010008C3010008C3010008D0
:10010000C3010008C3010008C3010008C3010008BF
:10011000C3010008C3010008C3010008C3010008AF
:10012000C3010008C3010008C3010008C30100089F
:10013000C3010008C3010008C3010008C30100088F
:10014000C3010008C3010008C3010008D11700085B
:10015000C3010008C3010008C3010008C30100086F
:10016000C3010008C3010008C3010008C30100085F
:10017000C3010008C3010008C3010008C30100084F
:10018000C3010008C3010008DFF80CD000F00EFA2C
:1001900000480047B9360008483100200948016886
:1001A00041F470010160084880470848004700009A
:1001B000FEE7FEE7FEE7FEE7FEE7FEE7FEE7FEE717
:1001C000FEE7FEE788ED00E01D1C0008890100083D
:1001D00000F0004230F000400AD0C10D01F560711E
:1001E000C0F3160042EA0151C208400711437047AC
:1001F00000200146704701F0004330B421F0004177
:1002000050EA010206D00A0DA2F56072C1F3130193
:10021000002A02DC30BC00207047440F44EAC104CD
:10022000C100E01830BC00EBC250AFF300800029E1
:10023000A8BF7047401C490008BF20F0010070476C
:1002400010B4B0FA80FC00FA0CF050EA010404BFCC
:1002500010BC704749B1CCF1200421FA04F411FA22
:100260000CF118BF012121430843A3EB0C01CB1D66
:100270004FEA00614FEA102042BF002010BC7047D7
:1002800000EBC35010440029A4BF10BC7047401CB1
:10029000490008BF20F0010010BC70472DE9FE4F57
:1002A000804681EA0300C00F0C46009021F0004117
:1002B00023F00045B8EB0200A94105D24046214693
:1002C00090461C460B46024623F00040104347D0A0
:1002D000270DC7F30A00C3F30A510290401A019098
:1002E00040286BDAC3F3130040F4801B0098924659
:1002F00020B10023D2EB030A63EB0B0B01985946A4
:10030000C0F14002504600F063F906460D465046E3
:100310005946019A00F06BF910EB08006141002486
:1003200087EA115284EAE7731A4340D0009A62B315
:10033000019A012A4FEA075215DC001B61EB02010A
:100340004FF0004202EA0752CDE90042001C41F59D
:10035000801132462B4600F06BF903B0BDE8F08FF8
:1003600040462146F9E7001B61EB0201001C41F504
:10037000801300185B412018A2F5001747EB03011A
:1003800040EAD570B6196D4111E06D084FEA3606A6
:1003900045EAC0754FEA0752001B61EB0201001CE1
:1003A00041F5801149084FEA3000001951413246A9
:1003B0002B4603B0BDE8F04F00F02BB900980122A6
:1003C00040000023D0EB020263EBE073009821466B
:1003D0004FEAE074B8EB000061EB0401E9E783F059
:1003E00000435BE781F0004158E72DE9FE4F81EAC9
:1003F000030404F0004421F0004100944FF0000B8E
:1004000023F0004350EA01045ED052EA03045BD0BB
:10041000C3F30A54C1F30A552C44A4F2F3340194F3
:10042000A0FB0254C1F3130141F48011C3F3130381
:1004300043F4801301FB024400FB034E840A970A35
:1004400044EA815447EA8357A4FB076802958D0A62
:1004500005FB07854FEA932C04FB0C542705029DEE
:100460004FEA065847EA1637B5EB08056EEB070C5E
:10047000870E920E47EA811742EA8312A7FB020118
:10048000B6EB0B0164EB00042B0D43EA0C335E1852
:1004900044EB1C50DA465146E7FB0201C5F3130456
:1004A0004FEA0B3343EA14534FEA0432019C43EA08
:1004B0000603A4F10C040294009CCDE900B400F002
:1004C000B7F803B0BDE8F08F00200146F9E72DE949
:1004D000F04D81EA030404F0004B21F0004514467E
:1004E0004FF0000A23F0004150EA050220D054EA00
:1004F00001021DD0C5F30A570246C5F31303C1F329
:100500001300C1F30A5640F4801543F48013A7EB9F
:100510000608101BD64608F2FD3873EB050002D31F
:1005200008F1010801E092185B41B8F1000F03DA0D
:1005300000200146BDE8F08D00204FF480110646F2
:1005400084460EE0171B73EB050705D3121B63EB04
:10055000050306434CEA010C49084FEA30009218A3
:100560005B4150EA0107EDD152EA030012D082EA62
:10057000040083EA0501084305D0101BAB4106D2F5
:100580000122002306E000224FF0004302E06FF05A
:10059000010253101AEB06004CEB085110EB0A0055
:1005A00041EB0B01BDE8F04D00F033B8064C074DB0
:1005B00006E0E06840F0010394E807009847103433
:1005C000AC42F6D3FFF7E4FDD0370008F03700085F
:1005D000202A04DB203A00FA02F100207047914003
:1005E000C2F1200320FA03F3194390407047202AF8
:1005F00006DBCB17203A41FA02F043EAE07306E04B
:1006000041FA02F3D040C2F120029140084319465A
:10061000704710B5141E73F1000408DA401C41F154
:10062000000192185B411A4301D120F0010010BD76
:100630002DE9F04D92469B4611B1B1FA81F202E0EC
:10064000B0FA80F220329046FFF7C2FF04460F4610
:1006500040EA0A0041EA0B0153465A46084313D0C8
:10066000114653EA010019D0C8F14002504600F08B
:100670007EF805460E46504659464246FFF7A8FF0B
:10068000084305D0012004E020463946BDE8F08D3E
:100690000020054346EAE0762C4337430A98630579
:1006A000E40AA0EB08000022FD0A44EA47540A309D
:1006B00002D500200146E9E7010510196941DDE98D
:1006C000084500196941BDE8F04DA2E72DE9F04D5C
:1006D00000231A461B1A8A4103DB00200146BDE8AD
:1006E000F08DC1F30A52C1F3130141F480154FF0AC
:1006F000000BD10702D100186D41521E002704469D
:1007000040F2FF11384601EB620A3E46804602463F
:1007100000204FF4801100F02AF8C2197141BB1873
:1007200046EB0100B4EB030C75EB000C04D3E41AA8
:1007300065EB000517460E46241908F101006D41CE
:1007400080463428E3DDF91946EB0600091BA84171
:1007500003D24FF0FF32134601E0002213461BEB99
:10076000070046EB0A51BDE8F04DFFF752BF202AC3
:1007700004DB203A21FA02F00021704721FA02F34B
:10078000D040C2F12002914008431946704770B52D
:100790008C1810F8015B15F0070301D110F8013B2C
:1007A0002A1106D110F8012B03E010F8016B01F8B3
:1007B000016B5B1EF9D12B0705D40023521E0DD40B
:1007C00001F8013BFAE710F8013BCB1A921C03E059
:1007D00013F8015B01F8015B521EF9D5A142D8D391
:1007E000002070BD0029816802D041F0010101E0C4
:1007F00021F0010181607047084B10B5D3F8042344
:1008000007490A40D0E900142143D0E902400443DB
:1008100021431143C3F8041310BD00000020014020
:10082000E030FCFF0029816802D041F4807101E0D2
:1008300021F480718160704730B542680F4B0C79AC
:100840001A400B6842EA04221343436082680C4B4F
:100850004D791A40D1E9034323438C6844EA4504A7
:10086000234313438360C26A097D22F47002491E48
:10087000C9B242EA0151C16230BD0000FFFEFFFC77
:10088000FDF7FFC006490028D1F8040302D040F468
:10089000005001E020F40050C1F80403704700004C
:1008A0000020014070B5072409290AD9C568A1F1C3
:1008B0000A0606EB4606B440A543B3401D43C56097
:1008C00007E0056901EB4106B440A543B3401D4371
:1008D00005611F23072A09D2446B521E02EB8202D4
:1008E00093409C4391400C43446370BD0D2A09D250
:1008F000046BD21F02EB820293409C4391400C4355
:10090000046370BDC46A0D3A02EB820293409C43BB
:1009100091400C43C46270BD816841F080418160A8
:10092000704700000748084A90ED040A10EE101ABC
:10093000914205DDDFED050A30EE600A80ED040A24
:1009400070470000A00000200000B4430000B44342
:1009500070B52A4D4FF00006A86CA0F2F31040428B
:1009600028676E7104D5C043401C28670120687158
:10097000286F40F24D11484300EE100A9FED201AF7
:100980001E4CF8EEC00A95ED140A803420EE011AD0
:1009900080EE810A10EE100A84ED000AB0F17E5F4D
:1009A00002DDB7EE000A06E010EE100A10F1814FEA
:1009B00003D9BFEE000A84ED000A10EE100AFFF71B
:1009C00007FC41EC100B02F0FBF851EC100BFFF7A9
:1009D00012FC00EE100ADFED0B0AD5ED151A20EE21
:1009E000201A81EE210A84ED010A6879012804D1D8
:1009F00030EEC00A6E7184ED010A70BD2000002047
:100A000000C82F4700003443264901229FED260AE3
:100A1000CB7C01F18000012B0AD0022B0FD0042BDC
:100A200014D0082B19D0102B1FD0202B31D023E04D
:100A3000D0ED040A30EE600A80ED040A13E0D0ED38
:100A4000040A30EE600A80ED040A14E0D0ED020AD8
:100A500030EE600A80ED020A21E0D0ED020A30EEAD
:100A6000600A80ED020A8A7406E0D0ED030A30EED7
:100A7000600A80ED030A0A74497C002908D000BF8F
:100A800090ED020ADFED090A30EE200A80ED040A3B
:100A90007047D0ED030A30EE600A80ED030A4A7415
:100AA000EEE70000200000200000B4430000704387
:100AB000FEE7000070B588B00121132000F0A8FE09
:100AC00002258DF804500024E0208DF806402D4EBC
:100AD00000908DF807408DF805506946304600F0CB
:100AE000CDFC05221146304600F019FD05220621F5
:100AF000304600F014FD05220721304600F00FFDBE
:100B000001268DF804608DF806408DF80760009688
:100B10008DF8055069461C4800F0B0FC4FF4A06009
:100B20008DF8044000908DF806408DF80550694618
:100B3000164800F0A3FC0121080300F081FEADF887
:100B400008404FF48270ADF80A00ADF8106028023A
:100B5000ADF812000820ADF81400ADF80C40ADF867
:100B6000164007200A4CADF81800ADF80E5002A947
:100B7000204600F000FF0121204600F0BDFE08B035
:100B800070BD00000000024000040240001002405E
:100B90000030014070B5204D0121284600F0D8FCFE
:100BA0001E4C2021204600F0D3FC8021204600F07E
:100BB000CDFC41F2883000F04CFB0121284600F0CA
:100BC000C7FC012000F045FB0121284600F0BEFCD7
:100BD000012000F03EFB0121284600F0B9FC29204D
:100BE00000F037FB0121284600F0B0FC40212046F0
:100BF00000F0A5FC0028F9D10021302000F086FE8D
:100C00004021204600F09BFC0028F9D12846BDE891
:100C10007040012100F09CBC000402400000024032
:100C200010B50D49FF2803D9FF228A70401C01E04E
:100C300088700020C87008490023082208313E202F
:100C400002F06AFC0021362002F03CFCBDE81040B6
:100C50000621014802F00CBBCC00002009484FF4EB
:100C6000FA71026BB2FBF1F2521C4267426BB2FBAB
:100C7000F1F2521C8267826BB2FBF1F1491CC16731
:100C800070470000200000202DE9F04F8A46814681
:100C90000126DFF8A4B0294B01F2F31100F2F310A2
:100CA00000254FF4FA7E0C4600220AE019F9027082
:100CB00011F901CBD3F85C8017FB0C87521C92B260
:100CC000DF65B242F2D3DA6D611E761C4BF8252047
:100CD000002A04DBDC6C944201D2C3E912520024E6
:100CE0006D1CADB2DC657545DDD3012640F2E63200
:100CF000054600210BE000BF1AF9017010F901CB85
:100D0000D3F85C8017FB0C87491C89B2DF65B142C0
:100D1000F2D3D96D681E761C4BF82210002904DB33
:100D2000DD6C8D4201D2C3E91221521E92B2DC6504
:100D30007245DDD2BDE8F08F6C0F0020200000204E
:100D40000A4610B5090602F07F0306D503EB8301BE
:100D500000EBC10101F58E7105E002EB820100EBB1
:100D6000C10101F55D7100248C700B70D2094A70CD
:100D700001F0BBFD002010BD70B50C460E0601F061
:100D80007F0505EB850100EBC10102D501F58E71F0
:100D900001E001F55D71E4090D704C708A60CB7063
:100DA00000D0CD80022B01D100220A7101F074FD28
:100DB000002070BD10B501F07F0404EB840100EB4E
:100DC000C101C1F88833C1F880230023C1F88C33F6
:100DD00081F8753381F87443C37801F55D71012B97
:100DE00000D10A6114F0FF0F03D001F0AFFD002025
:100DF00010BD01F0E3FCFAE70069002261F30A127A
:100E000001681143016070470A4610B5090602F0F7
:100E10007F0306D503EB830100EBC10101F58E7161
:100E200005E002EB820100EBC10101F55D710124D7
:100E30008C700B70D2094A7001F070FD002010BD5B
:100E400070B511F07F0404EB840100EBC1014FF099
:100E5000010581F81D5181F81C41C1F82821C1F814
:100E60002C2101F58E714FF00002C1E9053203D04B
:100E700001F06CFD002070BD01F0A0FCFAE700005D
:100E80002DE9F0410646002501F031FE074655E008
:100E9000F80751D03069EAB20369416BD14006EBE3
:100EA000820201F00101926943EAC11194680C4089
:100EB000E1071AD00124426B04FA05F18A43426328
:100EC00006EB8500806984601F48E9B200684268CB
:100ED00030469047F078012807D135B996F81101CE
:100EE000042802D1304601F0C5FC200704D506EBEA
:100EF0008500082480698460E00604D506EB85003F
:100F0000102480698460600604D506EB85004024C7
:100F100080698460A00704D506EB850002248069FF
:100F20008460200608D52946304600F01DF906EBFE
:100F300085018020896988607F086D1C002FA7D1FA
:100F40000120BDE8F0810000180100202DE9F041EA
:100F50000646002401F0D1FD0746DFF8988043E003
:100F6000F8073FD0E1B2304601F0CDFD0546C0079D
:100F700025D006EB84000125416D8D60F1780129B3
:100F80000CD1406D016904EB840006EBC000C1F395
:100F90001201D0F87C23511AC0F88C13D8F8000045
:100FA000E1B2026830469047F078012807D134B9A1
:100FB00096F81101052802D1304601F05BFCA80724
:100FC00004D506EB84000225406D8560280709D50D
:100FD000D8F8000081683046884706EB8401082075
:100FE000496D88607F08641C002FB9D10120BDE8DD
:100FF000F08100001801002070B50646C0688169C4
:1010000021F010018161F068056A05F00F0000EB26
:10101000800006EBC004C5F3434004F55D74072867
:1010200021D2DFE800F0202004202020150047F620
:10103000F070054217D0C5F30A152A463046E1681C
:1010400001F069FDE0682844E060A069284409E0F7
:10105000082206F2CC51304601F05DFDA069C5F3CF
:101060000A110844A061F068816941F010018161B2
:10107000012070BD38B5044600208DF8000094F8BA
:1010800012018DF800001548006841692046884724
:1010900020698068E2684FF400615161A17AD1B1A2
:1010A000C00718D094F81501012814D19DF800004C
:1010B000032810D1D4F80C01016841F0010101604E
:1010C000D4F80C01016841F0030101600448016893
:1010D00041F006010160012038BD00001801002028
:1010E00010ED00E070B50446006900250126416856
:1010F00021F0010141602946204601F0B7FC0020A3
:10110000FF2106E004EB800293699960526D9160C3
:10111000401C62788242F5D821694FF0FF30886127
:101120002846216966F30F0066F31F40C8612169F4
:1011300045F00B004861216945F00B00086120690A
:10114000016821F4FE610160204601F093FBE16833
:101150004FF4805048610348006801692046884781
:10116000012070BD180100202DE9F0470D4606460C
:1011700001EB850006EBC004D4E94C01421AD4F817
:10118000240104F58E74904200D20246D21C9708C6
:1011900006EB850918E000BFA0EB0108A0684045F8
:1011A00000D2804608F1030087081FFA88F3EAB2EC
:1011B0003046E16801F0CEFCE16801EB0800E06038
:1011C000A16901EB0800A061D9F81800806980B21C
:1011D000B84205D9D4E90501814201D20028DBD10A
:1011E0000120BDE8F0870029016802D041F001012B
:1011F00001E021F0010101607047000030B5036893
:10120000124ACC6813400A682243D1E905452C43B1
:101210002243CC6922430C6A22434C6A22438C6AE3
:1012200022434C6B22438C6B22431A430260426977
:1012300022F00703D1E90B2422431A4342610A69D1
:1012400042604A6882608968C16030BD3F801CF09E
:101250007047002104E00222521C0A2AFCDB491CD0
:101260008142F8D37047000000220121014800F0BC
:1012700032BD00000004004010B54FF480642046E9
:1012800000F028F800281CD0204600F01DF800F0DF
:101290002BFB01F0B9FF0B490128487511D1002043
:1012A0004875012000F0B4FB002000F0B1FB0220E3
:1012B00000F0AEFB002002F003F8BDE8104000F0A3
:1012C0002BBA10BD200000200149086070470000C3
:1012D000143C0140064A014600201268044B0A40B3
:1012E00014331B680B4202D0002A00D00120704743
:1012F000003C014001221146014800F0ECBC000016
:1013000000040040F0B53748002500F18001C572A7
:101310000A46354C0B690926DFF8D0E0D268A342B3
:1013200001DA312302E0A34202DD0E23C37311E090
:101330002F4BC57306759A4204DA032303759FED9C
:101340002D0A05E0724505DD06239FED2B0A037586
:1013500081ED040A8B689FED290A294FA34202DA26
:101360004FF0070C03E0A34204DD4FF0380C80F887
:101370000DC015E0DFF88CC0057362450ADD4FF043
:10138000010C80F814C0D1ED040A70EE600AC1EDC2
:10139000040A05E0BA4203DA4FF0040C80F814C0E6
:1013A000A24201DA1C2102E0A24202DD2321817364
:1013B00010E005730675734502DD0221017509E031
:1013C000BB4207DA05220275D1ED040A30EE600A4D
:1013D00081ED040A417B827B1140C27B1140C174C4
:1013E000F0BD0000200000200000B4420000F042E8
:1013F0000000F0410000B442000087430000B44305
:10140000000070420000164370B588B00325022624
:101410008DF80C50002402968DF80F4002A9134855
:1014200000F02CF88DF8145004968DF8174004A99C
:101430000F4800F023F88DF81C5006968DF81F40D9
:1014400006A90C4800F01AF86803009001208DF8F6
:1014500004008DF806408DF805508DF80740694668
:10146000054800F00BF808B070BD0000000802400D
:101470000004024000000240000C0240F0B50023CE
:10148000012403270D6804FA03F21540954242D166
:10149000D0F800C05E0007FA06F52CEA050CC0F88B
:1014A00000C091F804C0D0F800E00CFA06FC4CEA49
:1014B0000E0CC0F800C091F804C0BCF1010F02D0BE
:1014C000BCF1020F1FD1D0F808C02CEA050CC0F8FF
:1014D00008C091F805C0D0F808E00CFA06FC4CEA08
:1014E0000E0CC0F808C0D0F804C02CEA020CC0F8FA
:1014F00004C0426891F806C00CFA03FC1FFA8CFC89
:1015000042EA0C024260C268AA43C260CA79C56856
:10151000B2402A43C2605B1C102BB3D3F0BD4B0713
:10152000DB0E9A40C90810B500EB8100016A0F2458
:101530009C40A1430162016A1143016210BD024651
:10154000002012690A4200D0012070474183704791
:101550000183704709490A88A1F1A20042664A88BE
:1015600082668988C166416E09098170816E0909A8
:10157000C170C16E0909017170470000C2000020EE
:1015800070B53E4C4FF4FA752DED028B207880B982
:10159000A078E16B884207D8E078216C884203D8B4
:1015A0002079616C88421BD9032000F031FA0120B8
:1015B0002070E169A94213DA314AA0785054226BB5
:1015C0001044304A2063E0785054626B10442E4A35
:1015D000606320795054A26B491C1044E161A06300
:1015E000E069A84244D1FFF73FFEFFF737FB00F068
:1015F000E9FA24492248FFF747FB0026E664E6653E
:10160000FFF7A6F91D4D9FED218A80351E4995ED06
:10161000010A1C4885ED020A85ED018AFFF734FBBB
:10162000E664E665FFF794F995ED010A144985ED46
:10163000030A85ED018A1448FFF726FBE664E66598
:10164000FFF786F995ED010A85ED040ABDEEC00AA3
:101650000F4D10EE101A284600F044FC0A212846CF
:1016600000F040FC00F05EFA01F0ACFDFFF742FE36
:10167000A069401CA061BDEC028B70BD2000002061
:10168000C0010020B4030020A805002000000000D5
:1016900000440040FEE7000038B51D208DF8000032
:1016A00000248DF8014001208DF802008DF8030020
:1016B000684600F041F80121022000F0B5F80B481F
:1016C000152141605321018004814480084C01466A
:1016D000204600F009FB01221146204600F0FBFAEB
:1016E0000121204600F0E1FA38BD0000B4010020DD
:1016F0000004004010B501F0BDFC4FF4165001F09D
:1017000085FFFFF7C9FFFFF7D5F9FFF743FABDE8FB
:101710001040002001F0D4BD10B5002001F0D0FD34
:101720000122BDE810401146014800F0D4BA000083
:10173000000C0040FEE7704730B50F22C4780178F6
:101740000123FCB1144C246801F1E02104F4E064AD
:10175000C4F5E064C4F30724C4F10405E24044780E
:10176000AC408578154025432A0181F80024007893
:1017700000F01F018B404009800000F1E020C0F81C
:10178000003130BD01F01F0083404809800000F1A6
:10179000E020C0F8803130BD0CED00E00B488178CE
:1017A0008165426A914200D94162C1788165826A4D
:1017B000914200D9816201798165C26A914200D962
:1017C000C1628169491C81617047000020000020CE
:1017D000014800F00DBD0000081F0020094810B5A9
:1017E000807A48B10848016821F00601016000F0E4
:1017F00015FA044801F09FF9BDE810404FF480202D
:10180000FFF762BD081F002010ED00E070470000E8
:10181000044A0029116801D0014300E081431160AE
:101820007047000030380240044A0029116801D096
:10183000014300E0814311607047000040380240DE
:10184000044A0029116801D0014300E0814311607E
:10185000704700004438024070B5204A1168204C9F
:1018600011F00C0104D06610042903D0082903D01C
:1018700004601BE0066019E01849091F0B68C3F3F8
:1018800080550B6803F03F0315B1B6FBF3F301E09D
:10189000B4FBF3F30C680968C4F388146343C1F321
:1018A0000141491C4900B3FBF1F1016011680F23AC
:1018B00003EA11110B4B5C5C0168E1404160146864
:1018C000072505EA94241C5D21FA04F4846012685B
:1018D00005EA52329A5CD140C16070BD08380240BE
:1018E0000024F400DC0000200149024801F092BC11
:1018F000C8000020FC2400200029018802D041F00B
:10190000400101E021F040010180704770B5134CA7
:10191000054619B101290CD0002070BD01462046B2
:1019200000F027F80121204600F01AF80028F9D02D
:101930000FE00221204600F013F80028F9D02946D4
:10194000204600F016F80121204600F009F8002892
:10195000F9D0204600F00BF8C0B270BD0030014055
:101960000246002012890A4200D001207047808977
:1019700070478181704730B502884C8802F441532A
:101980000A88CD8822438C882C4322430C89224329
:101990004C8922438C892243CC8922431A430280FA
:1019A000828B22F400628283098A018230BD0000AA
:1019B0001CB504460E48012150F82400FFF728FF0B
:1019C0000B480021083830F81400009001208DF8F1
:1019D00004008DF806108DF8070002208DF8050030
:1019E0000448694650F82400FFF748FD1CBD00007C
:1019F00070370008100000200349044A31F8101025
:101A000052F820000183704768370008100000205A
:101A1000044951F820104A69034B33F81000424042
:101A20004A617047100000206837000870470000C6
:101A30000CB500202749019000900A6842F48032DA
:101A40000A604FF4A0430A6802F400320092019A3F
:101A5000521C0192009A12B9019A9A42F3D10A6873
:101A6000920334D5012000901A484030026842F0B9
:101A7000805202601848026842F4404202601548F1
:101A8000083002680260026842F4004202600268A4
:101A900042F4A0520260031F104A1A600A6842F022
:101AA00080720A600A689201FCD50D4A40F2056115
:101AB0001160016821F003010160016841F0020139
:101AC00001600168C1F381010229FAD10CBD0090C7
:101AD0000CBD000000380240007000400854400770
:101AE000003C02400E48416A01EB810202EBC10258
:101AF0000A21B2FBF1F2C263826A02EB820303EBBA
:101B0000C202B2FBF1F20264C26A02EB820303EB8F
:101B1000C202B2FBF1F141648169491C81617047E5
:101B20002000002010B5FFF7EDFBFEF76DFFFEF77C
:101B3000F9FE064890ED040ABDE81040BCEEC00A6C
:101B400010EE100A80B2FFF76BB80000A000002072
:101B500010B5164C607830B10020FFF74DFFBDE89E
:101B60001040FFF70DBDA06941F28831884203DCC7
:101B7000BDE8104000F01EB8A0F598518939B1F5C4
:101B8000FA7F09D2FFF70AFE094A206AA17842F8D3
:101B90002010401C206210BDA0F5A8517D39FAD15B
:101BA000FFF7A0FF0120607010BD000020000020A2
:101BB0009C07002002488169491C81617047000030
:101BC00020000020F0B5124900204FF4FA77D1E947
:101BD0001D54CE6F0F4901F5FA7201F57A7300BFFB
:101BE00011F800C0ACEB050C01F800C012F800C001
:101BF000ACEB040C02F800C013F800C0ACEB060C10
:101C000003F800C0401C80B2B842E9D3F0BD000028
:101C100020000020C001002070470000124810B5CD
:101C2000016841F4700101601048016841F0010150
:101C300001600E4A00210832116002680C4B1A4004
:101C40000260031D0B4A1A60026822F480220260BF
:101C500006480C300160FFF7EBFE03494FF00060CF
:101C60008039086010BD000088ED00E000380240B7
:101C7000FFFFF6FE1030002410B5094C012120466C
:101C800000F01DF8002809D00121204600F00AF8D4
:101C9000FFF760FCBDE81040FFF75ABF10BD000021
:101CA00000040040C943018270470029018802D026
:101CB00041F0010101E021F001010180704702467D
:101CC0000020138A92890B4202EA010202D0002A04
:101CD00000D001207047002A828901D00A4300E029
:101CE0008A4382817047000030B50288164B174C3A
:101CF00098420DD0A0420BD0B0F1804F08D0144DC7
:101D0000A84205D0134DA84202D0134DA84203D1DA
:101D100022F070054A882A43104DA84206D0104D83
:101D2000A84203D022F440750A892A4302804A68F7
:101D3000C2620A880285984201D0A04201D1897A04
:101D400001860121818230BD000001400004014074
:101D50000004004000080040000C0040001000405B
:101D60000014004010B50B4C40F22551204600F005
:101D700024F818B10021084600F002FF082120468F
:101D800000F014F8002804D02046BDE8104000F010
:101D9000A1B810BD004400400029818902D041F45F
:101DA000005101E021F4005181817047024600207A
:101DB00012880A4200D00120704730B501F01F029E
:101DC00001240025C1F3421304FA02F2012B0FD0C3
:101DD000022B0FD0838A4FEA11210088134204FAA4
:101DE00001F400EA040001D000B10125284630BD0D
:101DF0008389F0E7038AEEE710B5C1F3421301F0DF
:101E00001F040121A140012B07D0022B07D0143061
:101E1000002A026805D00A4304E00C30F8E71030CD
:101E2000F6E78A43026010BD7FB50446008A0D467E
:101E300020F44051E88808432082A08941F20C61D7
:101E40008843A9882A8911436A8902431143A181E1
:101E5000A08A20F44071A8890843A0826846FFF751
:101E6000FBFC1A48844202D01948844201D10398ED
:101E700000E00298A189090400EBC00101EB001009
:101E8000296801D5490000E08900B0FBF1F2642027
:101E9000B2FBF0F109010B096FF018056B4302EB7F
:101EA0008302A3891D044FF0320306D503EBC2025F
:101EB000B2FBF0F000F0070005E003EB0212B2FB0A
:101EC000F0F000F00F00084320817FBD00100140BA
:101ED000001401408088C0F308007047C1F3080176
:101EE0008180704703B401884906FCD5019902B08E
:101EF00089B2FFF7F3BF10B5D0F8E42552689047D8
:101F0000002010BD10B5134600240A462146FEF7F6
:101F100051FF204610BD10B5134600240A46214645
:101F2000FEF78EFF204610BD10B504468021FEF757
:101F30006BFF00212046FEF767FF2046BDE81040FA
:101F400000F098BC70B505460024052085F8110105
:101F50002346224621462846FEF72CFF284600F05D
:101F600089FC204670BD10B5C0F83C210223C0F8A2
:101F7000382180F81131134600240A462146FEF725
:101F80005FFF204610BD70B505460024042085F88B
:101F900011012346224621462846FEF751FF2846D6
:101FA00000F068FC204670BD70B5054641B1D5F81B
:101FB000E40542698AB395F81201032846D047E048
:101FC00095F81101002605F58E74022833D1E169D8
:101FD000A06881420FD9081AE061E878012803D18E
:101FE000D4E902100844E060A08BE16882B2284680
:101FF000FFF791FF1FE0216AB1FBF0F200FB121224
:1020000062B981420AD3606A814207D20022114636
:102010002846FFF780FF66620DE016E0D5F8E4057C
:10202000C16829B195F81201032801D128468847D3
:102030002846FFF787FF95F81601012808D10548C3
:1020400000682969486085F8166101E028469047D4
:10205000002070BD1C01002070B5054641B1D5F8C7
:10206000E40582690AB395F8120103282CD02DE00B
:1020700095F8110105F55D74032827D1E169A06881
:10208000814213D9081AE061E878012803D1D4E924
:1020900002100844E060E169A068814200D208466D
:1020A00082B22846E168FFF72DFF0FE0D5F8E4057E
:1020B000016929B195F81201032801D12846884702
:1020C0002846FFF760FF01E028469047002070BDDA
:1020D00010B50446D0F8E80540698047012084F82F
:1020E0001501002010BD10B50446D0F8E805806940
:1020F0008047D4F8E405002142682046904700203C
:1021000084F8150110BD38B5044648880D46010A0B
:1021100004295AD2DFE801F059021420D4F8EC1552
:10212000A0780A68694690470146E888402803D0AD
:1021300094F81201012837D10820ADF8000037E0EB
:10214000D4F8E415A0788A6A6946904701460220CF
:102150004870C4F8F01527E0C0B2062835D2DFE891
:1021600000F003080D12171CD4F8EC15A0784A688B
:1021700017E0D4F8EC15A0788A6812E0D4F8EC15D2
:10218000A078CA680DE0D4F8EC15A0780A6908E0D8
:10219000D4F8EC15A0784A6903E0D4F8EC15A078DF
:1021A0008A69694690470146BDF8000000280BD0B7
:1021B000EA88002A08D080B2824200D90246ADF8EF
:1021C00000202046FFF7CFFE38BD29462046FFF706
:1021D000ABFE38BD10B5D0F8E415096A8847002079
:1021E00010BD10B5D0F8E415496A8847002010BD2D
:1021F0002DE9F0470446002500F06BFC00287DD057
:10220000204600F06FFC060079D0300303D520464D
:10221000FEF79CFE0546700303D52046FEF730FE10
:102220000543B0074FF0000A02D5E168022048617B
:102230004C4F4FF00109002E17DAA07A30B1D4F8D4
:102240000C01D4F80C1120F00300086020694168EB
:1022500021F0010141603868816920468847E168C2
:102260004FF00040486145F00105300503D5204698
:10227000FEF700FF0543300708D53868C1682046DF
:102280008847E1680820486145F00105F00603D55C
:102290002046FEF7B1FE0543F00403D52046FEF7C5
:1022A00021FF0543B0041AD5204600F069FAE06822
:1022B000D0F80C80204600F0F9FB032847D084F8C2
:1022C0000290402128F47050A18000F5A050E168F0
:1022D000C860E1684FF40050486145F00105F00224
:1022E00009D53868C16920468847E1684FF48010F5
:1022F000486145F00105B0020CD501E024E024E07E
:102300003868016A20468847E1684FF40010486148
:1023100045F00105700009D53868416A20468847B4
:10232000E1684FF08040486145F0010570070BD52A
:10233000E0684668700703D53868816A2046884798
:10234000E068466045F001052846BDE8F08784F85E
:1023500002A04FF4007128F47050A18000F51050D5
:10236000B5E700001801002090F8CC250A7090F81D
:10237000CD254A7090F8CE2590F8CF3502EB032298
:102380004A8090F8D02590F8D13502EB03228A805C
:1023900090F8D22590F8D33502EB032292B2CA808E
:1023A0000121C0F8402180F81111704710B50023B9
:1023B000044640221946FEF7DFFC0023402280211C
:1023C0002046FEF7D9FC012084F81201D4F8E81564
:1023D000A07849688847002010BD10B50446D0F8A1
:1023E000E80500698047032084F81201002010BD31
:1023F00010B5D0F8E415C96901B18847002010BDB7
:1024000010B50446D0F8E405026820469047D4F899
:10241000E80580688047002010BD000070B50A46BE
:102420001A4D897804462970012905D894F81201BB
:10243000022807D003280CD02046BDE87040114682
:10244000FFF772BDA1B184F81011032084F81201C6
:102450000BE091B194F81001884209D00146204662
:10246000FFF749FD297884F810112046FFF7C8FFCF
:102470002046BDE87040FFF786BD022084F81201B7
:1024800084F810112046FFF736FDF1E72001002007
:1024900010B504464888012201280FD0022831D106
:1024A000888810F0FF0F2DD121694968000A06289D
:1024B0001FD2DFE800F01E0B0F13171BC4F8182102
:1024C000D4F8E40582682046904716E021F07001B8
:1024D00010310EE021F0700120310AE021F070018E
:1024E000303106E021F07001403102E021F070014E
:1024F00050310548016084F816212046BDE810409F
:10250000FFF741BD10BD00001C0100201CB50446B2
:102510006946FFF729FF9DF8001011F01F000AD04F
:1025200001280DD0022810D001F080012046FEF7CE
:102530006BFC00201CBD6946204600F00BF8F8E754
:102540006946204600F0E8F8F3E76946204600F0C7
:1025500079F8EEE72DE9F0414A78002701260A2AAA
:1025600042D2DFE802F03B554152410805412A279B
:10257000FFF7C9FD61E004468888C8B9C888B8B9C2
:10258000887800F07F0594F81201032810D084F8B1
:10259000145129462046FEF72FFC2046FFF7F3FC96
:1025A0001DB1022084F8120147E084F8126144E072
:1025B000204619E0FFF732FF3FE0CA88012A13D115
:1025C00090F81221022A02D0032A0DD102E0012242
:1025D0001B4917E0012200F5887113E090F81221E1
:1025E000022A04D0032A02D0FFF79EFC25E01449FA
:1025F0000839CE60D0F818210AB10322CA60104908
:102600000222091DFFF7AFFC17E0FFF741FF14E0BE
:10261000044690F81201022801D00328C8D1488846
:1026200001280AD10020C4F81801D4F8E405826812
:10263000204690472046FFF7A6FC3846BDE8F081CB
:102640002801002070B50D460446097968780026F7
:1026500058B3012816D0032831D194F8120102286A
:102660002FD0032827D1688828B921B1802902D02A
:102670002046FEF7C9FBD4F8E405294682682046C7
:1026800090470EE094F8120102281AD0032812D1C4
:102690006888A0B929B1802903D02046FEF750FBF5
:1026A000E9E72046FFF76FFC09E094F812010228E1
:1026B00007D003280DD029462046FFF735FC3046C9
:1026C00070BD0029FBD08029F9D02046FEF79CFB85
:1026D000F5E710480D064FF000034FF0010208D552
:1026E00001F07F0101EB810104EBC10191F81E11A2
:1026F00005E001EB810104EBC10191F8761309B10A
:10270000426000E0436003490222091D2046FFF7B2
:102710002AFCD4E72001002070B5054690F812018C
:1027200000260C4603280DD1207901280AD8D5F8B7
:10273000E405826828469047E08830B92846FFF7CC
:1027400022FC02E02846FFF7EFFB304670BD10B5D3
:1027500090F8121180F81311042180F81211D0F8AA
:10276000E805C0688047002010BDC0EB00100021C4
:10277000C0000722B0FBF2F0491C8142FCD970472F
:1027800010B5016900238C6882691168C4F34104A3
:102790002CB1012C03D0022C04D0032C05D16FF3F3
:1027A0000A0102E06FF30A01C91C11600069416867
:1027B00041F480714160184610BD0000F0B54A78C0
:1027C00000254C69012A15D00A7800EB82035A6D66
:1027D00016681269DCB38C68C1F8144064F3060211
:1027E0005B6D22F4C01202F500221A61C278012A40
:1027F00030D035E083691F681A6934B18E68B442FD
:1028000006D966F306024E6104E022F07F0201E081
:1028100064F3060222F4C01202F500221A61C278A3
:10282000012A05D10C780A6900EB8404A46962616D
:1028300047F004421A60C278CAB94A69BAB10A7844
:10284000006901219140426B0A4342630FE0FFE7B8
:102850000C7AC3E70B780A6900EB83035B6D5A615E
:10286000097846F0044200EB8100406D0260284682
:10287000F0BD0000426D07491161C178012908D1FE
:10288000426D00F2CC515161406D01684FF08021E2
:1028900001607047180008C0F0B50E7800254F7829
:1028A0000122B2402B4600EB8604012F19D0646D43
:1028B00062F31F43226816040DD40E8966F30A02E0
:1028C000CE78897966F3934261F3995242F0805150
:1028D00041F4004121600069C1691943C161284682
:1028E000F0BDA46962F30F03E4E710B502464C782B
:1028F0000B78002002EB8302012C09D0526D136883
:10290000C97823F40013032904D0022902D003E07C
:102910009269F4E743F08053136010BD02464B7890
:102920000978002002EB8101012B05D0496D0A686E
:1029300042F400120A6070478A691168002901DABE
:1029400041F0804141F4001111607047F0B54B78BF
:102950000A78002401264F6900EB8202012B15D072
:10296000556D2B682A69002F61D08E6837447F1E11
:10297000B7FBF6F767F3DC42C2F3C947774367F367
:1029800012022A61C278012A57D05CE095692B684F
:102990002A696FB1D1F808C067F3120267447F1E3D
:1029A000B7FBFCF767F3DC42CF78012F05D008E0D6
:1029B0006FF3120266F3DC4203E022F0C04202F140
:1029C00000522A61C278012A0ED0CA78012A12D098
:1029D0004A69BAB10A7896400269556B3543556326
:1029E000CA78012A07D00DE00D780A6900EB850549
:1029F000AD696A61F4E702699268120AD2070CD0E5
:102A000043F0805343F004420B7800EB83039B694F
:102A10001A60CA78012A03D026E043F00053F1E798
:102A20008A8A93B20A78C96800F094F81CE08F682B
:102A300067F3120266F3DC42A3E70D780A6900EB44
:102A400085056D6D6A61CA78012A06D14A7912B18D
:102A500043F0005301E043F08053097843F004420F
:102A600000EB8100406D02602046F0BD38B50024C7
:102A700022460094009B43F020030093009B61F3E7
:102A80008A1300930099C36819610749C0680369F4
:102A90000093521C8A4202D8009B9B06F7D4032065
:102AA000FFF763FE204638BD400D030001460020BD
:102AB00009698968C1F3410139B1012903D00229AB
:102AC00005D0032900D10220704703207047012060
:102AD0007047C068406910F0010F01D000207047B6
:102AE00001207047C06841698069084070470069EB
:102AF0008169C069084080B2704700698169C06916
:102B00000840000C704700EB8101496D896800693D
:102B1000406908407047034610B50020D21C920857
:102B2000D3F8D03003E01C6841F8044B401C9042BD
:102B3000F9D3084610BD817A00290AD00169896855
:102B4000C90706D0D0F80C11D0F80C0121F0030110
:102B50000160704730B5C47800256CB900EB820085
:102B60000024DB1C9B08D0F8D00003E051F8042BB4
:102B70000260641C9C42F9D3284630BDFEE7000089
:102B80000B4810B50C4A84790A4B1068072C02D008
:102B9000082C02D002E001F07F011954401C1060A3
:102BA000B0F5006F01D100201060002010BD0000C2
:102BB0009C01002045250020380100200000000075
:102BC00010B5B94A2DED020B2DED0C8B82B00F998B
:102BD00021F000409FEDB6CB90422CDBA0F140539A
:102BE0000E9AA3F17F631A430FD0B349884202DCE7
:102BF00016D10E98A0B19DED0E0B02B0BDEC0C8B62
:102C000002B0BDE8104000F003BA0029C1BF9FED3B
:102C1000AC0B02B0BDEC0C8B02B0C8BF10BD16E00F
:102C2000012000F021FA02B0BDEC0C8B02B0BDE82F
:102C3000104000F0F9B9A44A9FEDA59B9FEDA6AB0B
:102C400090425EDAA6499FEDA8CB814208DBB0EE48
:102C50004C0AF0EE6C0A02B0BDEC0C8B02B010BD59
:102C60009DED0E0B53EC102B51EC100BFDF7BDFB43
:102C700041EC180B9E480621B0EE480AF0EE680AB7
:102C8000784400F049F953EC182B51EC100BFDF788
:102C9000ACFB41EC1B0B9748B0EE480AF0EE680A1B
:102CA0000421784400F038F953EC182B51EC100B48
:102CB000FDF79BFB53EC192BFDF7F0FA41EC100BE1
:102CC00051EC1B0B53EC102BFDF701FC41EC100BEE
:102CD00053EC102B9DED0E0B51EC100BFDF785FB0B
:102CE00053EC1A2BFDF77EFB9DED0E1B53EC112BC5
:102CF000FDF778FB53EC1C2BFDF774FB41EC100B3C
:102D0000A9E79FED7D8B9FED7EBB9DED0E0B00290E
:102D100053EC192B51EC100B52DAFDF7BFFA53ECC0
:102D2000182BFDF762FB41EC180B77480621B0EE3B
:102D3000480AF0EE680A784400F0EEF853EC182BDD
:102D400051EC100BFDF751FB41EC1D0B6F48B0EE41
:102D5000480AF0EE680A0421784400F0DDF853ECEC
:102D6000182B51EC100BFDF740FB53EC192BFDF722
:102D700095FA41EC190B51EC180B00F0ADFC41EC4D
:102D8000180B53EC192B51EC1D0BFDF7A0FB53EC6A
:102D9000182BFDF72AFB53EC1A2BFDF720FB41EC17
:102DA000100B51EC180B53EC102BFDF777FA53EC8A
:102DB0001B2BFDF71AFB53EC1C2BFDF713FB6DE0EF
:102DC000FDF710FB53EC182BFDF70FFB41EC180B34
:102DD00000F082FC41EC1A0B00208DED00AB00905E
:102DE0009DED000B51EC1A0B53EC102BFDF756FA2E
:102DF0009DED000B41EC1C0B53EC102B51EC100B18
:102E0000FDF7F3FA53EC182BFDF7ECFA53EC1C2BFF
:102E1000FDF75DFB41EC1C0B3D48B0EE480AF0EEBF
:102E2000680A0621784400F077F853EC182B51EC2F
:102E3000100BFDF7DAFA41EC1D0B3648B0EE480AEC
:102E4000F0EE680A0421784400F066F853EC182B81
:102E500051EC100BFDF7C9FA53EC192BFDF71EFAD4
:102E600041EC100B51EC1D0B53EC102BFDF72FFB1D
:102E700053EC1A2BFDF7B9FA53EC1C2BFDF70EFAA5
:102E800041EC100B53EC102B9DED000B51EC100B93
:102E9000FDF704FA53EC1B2BFDF7A7FA41EC100BDE
:102EA000D9E60000000000000000F03F0000000034
:102EB000182D4454FB2109400000F07F0000000061
:102EC00000000000000000000000E03F00000000E3
:102ED000000000000000F03F075C143326A6913C80
:102EE0000000603C00000000182D4454FB21F93F15
:102EF000FC0A00000A0B0000000000000000E03F98
:102F00000000000000000040460A0000540A0000D3
:102F1000580900006609000070B504462DED028BCB
:102F20004D1E00EBC500B0EE408AF0EE608A90EDD9
:102F3000000B35F0060017D053EC182B51EC100B9A
:102F4000FDF753FA41EC100B6D1E04EBC50090ED3C
:102F5000001B51EC100B53EC112BFDF79FF941ECCA
:102F6000100B35F00600E7D1022D36D0042D1CD011
:102F7000062D1CBFBDEC028B70BD53EC182B51EC21
:102F8000100BFDF732FA94ED0A1B53EC112BFDF7F1
:102F900085F953EC182BFDF728FA94ED081B53EC38
:102FA000112BFDF77BF941EC100B53EC182B51EC76
:102FB000100BFDF71AFA94ED061B53EC112BFDF7DD
:102FC0006DF953EC182BFDF710FA94ED040B53EC4C
:102FD000102BFDF763F941EC100B53EC182B51EC5F
:102FE000100BFDF702FA94ED021B53EC112BFDF7C9
:102FF00055F953EC182BFDF7F8F994ED001B53EC41
:10300000112BFDF74BF9BDEC028B41EC100B70BDA1
:1030100010B553EC102B51EC100BFDF73FF941ECC0
:10302000100B10BD000000009FED050B10B553EC18
:10303000102B51EC100BFDF74AFA41EC100B10BDB0
:10304000000000000000000002E008C8121F08C1D4
:10305000002AFAD170477047002001E001C1121F19
:10306000002AFBD17047000001490860704700004A
:10307000A4010020F0B5012193B08805FEF7C8FB3C
:1030800001210720FEF7C4FB01210D022846FEF7AF
:10309000D7FB01214802FEF7D3FB01218E02304607
:1030A000FEF7CEFB4148069041480024CDE904409C
:1030B0000320CDE90740E800CDE90A608000CDE9B2
:1030C0000C05099400010E9001250420CDE910544F
:1030D000384E0F9004A930461294FEF78FF8012164
:1030E0003046FEF780F8FEF78FF91620CDE9000490
:1030F000A803CDE902046846FDF77EFB2E4E04943A
:103100008DF814408DF815500694079408948DF8A6
:10311000245004A93046FDF78FFB062301220B2122
:103120003046FDF7BFFB254F04948DF814408DF811
:1031300015500694079408948DF8245004A9384635
:10314000FDF77AFB0623012209213846FDF7AAFB89
:1031500004948DF81440069407940894184C8DF844
:1031600015508DF8245004A92046FDF765FB012277
:10317000062311462046FDF795FB0120FDF782FB53
:1031800001213046FDF72EFB01213846FDF72AFBD1
:1031900001212046FDF726FB01213046FDF742FBC9
:1031A0003046FDF7B9FB13B0F0BD0000C2000020AF
:1031B000082301401064024000200140002101402A
:1031C000002201400D4900209FED0D0A0870C861E2
:1031D00008634863886348678867C867C864886409
:1031E000086748718031074A81ED010A81ED000AC4
:1031F0008861401C9042FCD3886170472000002009
:1032000000000000005900010148407870470000AC
:10321000CA00002038B50D4604460121342000F0D4
:1032200051F93B2000F02CF91049487041060F4835
:1032300000F1020016D001214170022221463F20F8
:1032400000F0F2F860782870022269463F2000F012
:10325000EBF801213A2000F035F99DF8010000F06B
:10326000800038BD00214170084638BDC8000020EC
:1032700070B5114A93685B1C93600A4601460023AF
:103280003F2000F049F90021352000F01BF90B4CDC
:103290004FF4807529462046FEF751F90028F9D0F1
:1032A00029462046FEF74BF90028F9D1BDE87040C9
:1032B00000213B2000F006B9C800002000100240A9
:1032C00010B50446024600210C2000F06DF90B21D8
:1032D0002246084600F068F9224600210C2000F042
:1032E00063F9224621210D2000F05EF92246622179
:1032F0000E2000F059F9224676210F2000F054F9F3
:1033000022462D21102000F04FF922463B211120AA
:1033100000F04AF922467321122000F045F92246B6
:103320002221132000F040F92246F821142000F059
:103330003BF9224600210A2000F036F9224662219C
:10334000152000F031F92246B621212000F02CF999
:1033500022461021222000F027F918212246084693
:1033600000F022F922461D21192000F01DF9224605
:103370001C211A2000F018F92246C7211B2000F05A
:1033800013F9224600211C2000F00EF92246B2213A
:103390001D2000F009F92246EA21232000F004F95B
:1033A00022460A21242000F0FFF822460021252091
:1033B00000F0FAF822461121262000F0F5F8224606
:1033C0005921292000F0F0F8224688212C2000F015
:1033D000EBF8224631212D2000F0E6F822460B21A1
:1033E0002E2000F0E1F822460621002000F0DCF853
:1033F00022460621022000F0D7F80721224608467F
:1034000000F0D2F822460521082000F0CDF822462F
:103410000221092000F0C8F82246FF21BDE8104033
:10342000062000F0C1B800002DE9F041DFF8488027
:103430000E4640F0C004154601214046FEF786F8CE
:103440000E4F40213846FEF77AF80028F9D10021C6
:103450002046FEF75BFA002406E000210846FEF74E
:1034600055FA3055641CE4B2AC42F6D34046BDE890
:10347000F0410121FEF76CB8000402400000024058
:1034800070B50E4D40F0C00401212846FEF75EF8ED
:103490000B4E40213046FEF752F80028F9D10021AA
:1034A0002046FEF733FA00210846FEF72FFA0446BD
:1034B00001212846FEF74CF8204670BD000402406A
:1034C0000000024070B5124D124C0646A1B1012910
:1034D0001DD12846FEF73AF840212046FEF72FF886
:1034E0000028F9D100213046FEF710FA2846BDE841
:1034F00070400121FEF72CB801212846FEF726F87E
:1035000040212046FEF71BF80028F9D1EAE770BDFC
:1035100000040240000002402DE9F04140F0400468
:103520001F48204F15460E468BB1012B36D1012185
:103530008046FEF70BF840213846FEF700F80028D9
:10354000F9D100212046FEF7E1F900241EE0012117
:103550008046FDF7FBFF40213846FDF7F0FF0028CD
:10356000F9D100212046FEF7D1F9002405E0305DB5
:103570000021FEF7CBF9641CE4B2AC42F7D307E0BC
:10358000305D0021FEF7C2F9641CE4B2AC42F7D30F
:103590004046BDE8F0410121FDF7DABFBDE8F0810A
:1035A00000040240000002402DE9F041154D164C88
:1035B0000E460746CAB1012A22D101212846FDF74D
:1035C000C5FF40212046FDF7BAFF0028F9D10021B0
:1035D0003846FEF79BF900213046FEF797F928465A
:1035E000BDE8F0410121FDF7B3BF01212846FDF7F9
:1035F000ADFF40212046FDF7A2FF0028F9D1E6E704
:10360000BDE8F08100040240000002402DE9F041D5
:103610008046012188B04804FEF706F901210846DA
:10362000FEF7F6F802208DF814008DF8150000243E
:103630001F4F0C258DF81640012604958DF8176054
:1036400004A93846FDF71AFF072202213846FDF784
:1036500066FF072203213846FDF761FFADF80840F9
:10366000ADF80A50134DADF80440CDF80080ADF828
:103670000640ADF80C4069462846FEF7D5FB01220E
:1036800040F225512846FEF7B7FB26208DF818009A
:103690008DF819408DF81A408DF81B6006A8FEF7CA
:1036A0004BF801212846FEF777FB08B0BDE8F08112
:1036B000000002400044004008B506490020009088
:1036C00008660320FEF774F90020FEF771F9FEF793
:1036D00011F8FEE72000002000B52DED048B83B02B
:1036E00041EC190BFCF7F2FF41EC180B18EE100A35
:1036F00018EE901A8DED008B002818BF01200843AA
:1037000020F00040C0F17F6000F1E040C00F14D015
:1037100019EE101A19EE900A8DED009B002918BFC2
:103720000121084320F00040C0F17F6000F1E0403B
:10373000C00F04BF0120FFF797FC51EC180B03B03A
:10374000BDEC048B00BD000000000602030707006B
:103750000100010004000800010000000000020058
:103760000100000001000000001000200040008067
:103770000800000008000000080000000800000029
:10378000555555555555C53F7D6FEB0312D6D4BFE2
:103790005544880E55C1C93F3B8F68B52882A4BFE8
:1037A00088B20175E0EF493F09F7FD0DE13D023FA9
:1037B0004B2D8A1C273A03C0C88A599CE52A004031
:1037C00059018D1B6C06E6BF82922EB1C5B8B33F7E
:1037D000F037000800000020A80100008E07000854
:1037E00098380008A8010020A02F000058300008D9
:1037F0002113024012443A40082904DA0C04014F14
:103800000808439A99993EC3F5485867414E474C7A
:10381000453D2A030462015AC001412D01020304FF
:1038200004170607080959201408A91F14080D25B4
:103830001408F1231B08AD04134F271B08DB0813E2
:10384000D5211B08E3041AD1241AE70422EC02282C
:10385000200213FF140902431302012DC032090490
:1038600085190B1305241610010524011009010404
:103870002402020524061701070582030815FF0923
:10388000040133020A2E0705010240072A8107219D
:083890002AC2D1520800000019
:040000050800018965
:00000001FF
