:020000040800F2
:10000000502700209D010008DB2700081922000866
:100010001D27000843150008693F00080000000084
:10002000000000000000000000000000992B000804
:10003000951D00080000000061280008A52C00089C
:10004000B7010008B7010008B7010008B7010008B0
:10005000B7010008B7010008BD1F00080120000813
:10006000B7010008B7010008B7010008651B0008C8
:10007000B7010008B7010008B7010008B701000880
:10008000B7010008B7010008B7010008B701000870
:10009000B7010008B7010008B7010008B701000860
:1000A000B7010008B7010008B7010008B701000850
:1000B000152D0008B7010008192D0008B701000828
:1000C000B7010008B7010008B7010008B701000830
:1000D0006D290008B7010008B7010008B701000842
:1000E000B7010008B7010008B7010008B701000810
:1000F000B7010008B7010008B7010008691B000834
:10010000B7010008B7010008B7010008BD290008C1
:10011000B7010008B7010008B7010008B7010008DF
:10012000B7010008B7010008B7010008B7010008CF
:10013000B7010008B7010008B7010008B7010008BF
:10014000B7010008B7010008B701000855280008EA
:10015000B7010008B7010008B7010008B70100089F
:10016000B7010008B7010008B7010008B70100088F
:10017000B7010008B7010008B7010008B70100087F
:10018000B7010008B7010008DFF80CD001F072F8E1
:1001900000480047254000085027002006488047B7
:1001A00006480047FEE7FEE7FEE7FEE7FEE7FEE75C
:1001B000FEE7FEE7FEE7FEE7C52C00088901000820
:1001C0002DE9F05F0446FF48FD4901600268FE48E2
:1001D000FE490026824232D10860E661A66166616E
:1001E0002661A662666226626068DFF8E4A3DFF833
:1001F000E4B304F11005814610F0FF4F21D02088B0
:1002000000F070FF52465B4600F0FDFE0746884650
:10021000484600F08DFF3A46434600F0DBFD0746B6
:1002200088460821484600F0C9FD00F081FF3A46A3
:10023000434600F0E8FE00F062FFA88302E00E6093
:10024000FEE7AE83A76817F0FF4F1FD0B4F8008019
:10025000404600F047FF06468946384600F068FFF2
:1002600052465B4600F05DFE4B46324600F0B2FD62
:1002700006460F464FEA082000F034FF32463B4660
:1002800000F0C1FE00F03BFFE88300E0EE83208831
:100290004FF47A71B0FBF1F02884BDE8F09F2DE9AE
:1002A000FF4FCA49C84A97B00968914200D0FEE79B
:1002B0001A99103100250A6903924A6908928A69DD
:1002C0000792D1E901620C680592CA6806921A9AEF
:1002D0008B8B92890993CB8B0E9316E10778BE4BDB
:1002E000A3F5807813F807C0B444CDF844C018F8DB
:1002F000076010F802A004EB4606A3F5007413F89B
:100300000AC0E75D0CEB0609CDF82C9010F81290AE
:1003100018F80A6007EB460613F809C014F80A70CB
:100320000CEB060E18F8096002EB420C07EB4606D0
:1003300014F80970CDF84CC010F80C9013F809C0EF
:100340000CEB060B18F8096007EB460614F8097069
:1003500010F8229013F809C0B444CDF848C018F83A
:10036000096002EB820C07EB460614F8097010F8DE
:100370000C9013F809C00CEB060A18F80960DDF8B8
:100380004CC007EB460614F8097010F81C9013F8DF
:1003900009C0B444CDF850C018F8096014F809C079
:1003A00007EB4606C2EBC207DDF82C90C75DDB5DAC
:1003B0003344139318F80730E45D0CEB4306C9EBA4
:1003C000C903DDF844C003EB4307CCEBCC0307EBD8
:1003D0008303CEEB0E1C63440BEB8B0C03EB4C0343
:1003E000DDF848C00CEB4C0803EB48030AEB4A0C61
:1003F0006344DDF850C09C44069B6344DDF844C070
:1004000001930CEBCC039B0003EB4703CEEBCE0731
:1004100007EB0E1703EB47030BEB4B0703EB07133D
:10042000CAEBCA0703EB081307EB0A17DDF850C045
:1004300003EB4703CCEBCC0707EB470803EB48077C
:10044000139BDDF848C003EBC30307EB8307059B51
:100450000CEB8C0C3B4406930BEB4B070EEB4E0363
:100460007F004B4407EB4C073B44CAEB0A173B4465
:1004700003EB0807139BC3EBC30307EB830305934D
:10048000019B0E9FA3F500338FB1039F07EB030C75
:10049000089FACEB0707DDF838C007FB0CF74FEA05
:1004A000E77C07EB1C673F12039708933B46099FC5
:1004B00077B1DDF81CC0C7F5807707FB0CF7DDF8D6
:1004C00024C00CFB0373DF1703EB17631B120793A6
:1004D000199F7B43002B01DD083300E0083BDF1749
:1004E00003EB17733D4F1B11BB4203DB7F42BB4243
:1004F00000DC1F463B461A9FDDF860C000EBC200DF
:10050000FF896F436D1C2CF817300B8CAB423FF703
:10051000E5AEC1E90046059888600698C860039872
:100520000861089848610798886198B21BB0BDE8D7
:10053000F08F2DE9FF4F2549234A97B00968914272
:1005400000D0FEE71A99103100250A6903924A6922
:1005500008928A690792D1E901620C680592CA681B
:1005600006921A9A8B8B92890993CB8B0E9328E172
:100570000778194BA3F5807813F807C0B444CDF879
:1005800044C018F8076010F802A004EB4606A3F573
:10059000007413F80AC0E75D0CEB0609CDF82C9047
:1005A00010F8129018F80A6007EB460613F809C015
:1005B00014F80A700CEB060E18F8096010E0000041
:1005C000C2A507F400300240CDB5E8B5E800002030
:1005D0001F85EB51B81E1940EC0200204480FFFF3C
:1005E00007EB460614F8097002EB420CCDF84CC03C
:1005F00010F80C9013F809C00CEB060B18F8096002
:1006000007EB460614F8097010F8229013F809C099
:10061000B444CDF848C018F8096002EB820C07EB2F
:10062000460614F8097010F80C9013F809C00CEB8A
:10063000060A18F80960DDF84CC007EB460614F806
:10064000097010F81C9013F809C0B444CDF850C0DC
:1006500018F8096014F809C007EB4606C2EBC20798
:10066000DDF82C90C75DDB5D3344139318F8073039
:10067000E45D0CEB4306C9EBC903DDF844C003EBB2
:100680004307CCEBCC0307EB8303CEEB0E1C634498
:100690000BEB8B0C03EB4C03DDF848C00CEB4C0868
:1006A00003EB48030AEB4A0C6344DDF850C09C445A
:1006B000069B6344DDF844C001930CEBCC039B0024
:1006C00003EB4703CEEBCE0707EB0E1703EB470315
:1006D0000BEB4B0703EB0713CAEBCA0703EB08133B
:1006E00007EB0A17DDF850C003EB4703CCEBCC0750
:1006F00007EB470803EB4807139BDDF848C003EB03
:10070000C30307EB8307059B0CEB8C0C3B44069360
:100710000BEB4B070EEB4E037F004B4407EB4C07F4
:100720003B44CAEB0A173B4403EB0807139BC3EB9C
:10073000C30307EB83030593019B0E9FA3F50033CF
:100740008FB1039F07EB030C089FACEB0707DDF8A5
:1007500038C007FB0CF74FEAE77C07EB1C673F123A
:10076000039708933B46099F77B1DDF81CC0C7F596
:10077000807707FB0CF7DDF824C00CFB0373DF1751
:1007800003EB17631B120793199F7B43002B01DDBB
:10079000083300E0083BDF1703EB1773FE4F1B1114
:1007A000BB4203DB7F42BB4200DC1F463B461A9F35
:1007B000DDF860C000EBC200FF896F436D1C2CF8B0
:1007C00017300B8CAB423FF7D3AEC1E9004605981A
:1007D00088600698C860039808610898486107987F
:1007E000886198B2A2E62DE9FF4FEC49EC4A97B038
:1007F0000968914200D0FEE71A99103100250A6974
:1008000003924A6908928A690792D1E901620C68E9
:100810000592CA6806921A9A8B8B92890993CB8BA0
:100820000E9317E1DD4B07781B1D03F5807813F855
:1008300007C0B444CDF844C018F8076010F802A00F
:1008400004EB460603F5007413F80AC0E75D0CEBF1
:100850000609CDF82C9010F8129018F80A6007EBF2
:10086000460613F809C014F80A700CEB060E18F8C7
:10087000096002EB420C07EB460614F80970CDF84C
:100880004CC010F80C9013F809C00CEB060B18F8CC
:10089000096007EB460614F8097010F8229013F867
:1008A00009C0B444CDF848C018F8096002EB820CC6
:1008B00007EB460614F8097010F80C9013F809C0FD
:1008C0000CEB060A18F80960DDF84CC007EB460689
:1008D00014F8097010F81C9013F809C0B444CDF84E
:1008E00050C018F8096014F809C007EB4606C2EBBF
:1008F000C207DDF82C90C75DDB5D3344139318F815
:100900000730E45D0CEB4306C9EBC903DDF844C0D6
:1009100003EB4307CCEBCC0307EB8303CEEB0E1CBE
:1009200063440BEB8B0C03EB4C03DDF848C00CEB82
:100930004C0803EB48030AEB4A0C6344DDF850C053
:100940009C44069B6344DDF844C001930CEBCC034C
:100950009B0003EB4703CEEBCE0707EB0E1703EB31
:1009600047030BEB4B0703EB0713CAEBCA0703EB79
:10097000081307EB0A17DDF850C003EB4703CCEB75
:10098000CC0707EB470803EB4807139BDDF848C08B
:1009900003EBC30307EB8307059B0CEB8C0C3B4479
:1009A00006930BEB4B070EEB4E037F004B4407EB1C
:1009B0004C073B44CAEB0A173B4403EB0807139B65
:1009C000C3EBC30307EB83030593019B0E9FA3F5C2
:1009D00000338FB1039F07EB030C089FACEB0707B5
:1009E000DDF838C007FB0CF74FEAE77C07EB1C6724
:1009F0003F12039708933B46099F77B1DDF81CC06F
:100A0000C7F5807707FB0CF7DDF824C00CFB0373F8
:100A1000DF1703EB17631B120793199F7B43002B10
:100A200001DD083300E0083BDF1703EB17735A4F73
:100A30001B11BB4203DB7F42BB4200DC1F463B462F
:100A40001A9FDDF860C000EBC200FF896F436D1C88
:100A50002CF817300B8CAB423FF7E4AEC1E90046EF
:100A6000059888600698C8600398086108984861EE
:100A70000798886198B259E52DE9FF4F4749484AE0
:100A800098B00968914200D0FEE71B99103100250B
:100A90000A6902924A6906928A690492D1E901625E
:100AA0000B680592CA6808921B9A94898A8B0992EE
:100AB000CA8B10926BE1394A0778121D02F58078D3
:100AC00012F807C0B444CDF858C018F8076010F801
:100AD00004A003EB460602F5007312F80AC0DF5DBE
:100AE0000CEB0609CDF8289010F8149018F80A605D
:100AF00007EB460612F809C013F80A70B444CDF8A3
:100B00002CC018F8096004EB440A07EB460613F8FA
:100B1000097010F80A9012F809C0B444CDF838C032
:100B200018F8096007EB460613F8097010F82490CE
:100B300012F809C0B444CDF83CC018F8096004EBC1
:100B4000840C07EB460613F80970CDF854C010F872
:100B50000C9012F809C0B444CDF844C018F80960EC
:100B600007EB460613F8097010F81A9012F809C03E
:100B70000CEB060E18F80960C4EBC40C07EB460634
:100B800013F8097010F80C9012F809C00CEB060A63
:100B900018F8096006E000004480FFFFE80000202C
:100BA000CDB5E8B507EB460613F8097010F8349098
:100BB00012F809C00CEB060B18F8096013F809C00D
:100BC00007EB460604EBC407DDF82890C75DD25D4D
:100BD000DB5D324418F807600CEB4606DDF858C0C0
:100BE000CCEB0C1707EB470709EBC90C07EB8C079D
:100BF000DDF82CC0CCEBCC0C07EB8C07DDF838C053
:100C0000CCEBCC0C0CEB4C0C6744DDF83CC0CCEBD3
:100C10000C1C6744DDF844C00CEB8C0C07EB4C0754
:100C20000EEB4E0C07EB4C070AEB4A0C674407EB44
:100C30000B0C089F6744DDF858C001970CEBCC07FC
:100C4000C7EB8C17C9EB891C6744DDF82CC00CEB93
:100C50008C0808EB8C1C6744DDF838C00CEBCC0822
:100C600008EB8C1C6744DDF83CC00EEBCE08CCEBE7
:100C70000C1C0CEB8C0C6744DDF844C0CCEB0C1C5A
:100C80000CEB8C0C674408EB8E1C67440AEB8A085B
:100C900008EB8A1C6744CBEB8B1C674402EBC20C4D
:100CA000CCEB821CBC44059FC2EB02126744DDF80A
:100CB0002CC008970CEB4C07DDF838C04F440CEB08
:100CC0004C0C4FEA4C08DDF83CC002EB42020CEB46
:100CD0008C0C08EB4C0C6744DDF844C0CCEB0C1CCE
:100CE0006744CEEBCE0C0CEB4C0C6744CAEBCA0C41
:100CF00007EB8C070BEBCB0C07EB8C073A44059208
:100D0000019F109AA7F57A378AB1029A02EB070C75
:100D1000069AACEB0202DDF840C0069702FB0CF22B
:100D20004FEAE27C02EB1C62121202921746099A09
:100D30007AB1DDF810C0C2F5807202FB0CF2DDF86A
:100D400024C00CFB0722D71702EB176212121746BA
:100D500004921A9A5743002F01DD103700E0103F2C
:100D6000FA1707EBD262144F5211BA4203DB7F42EB
:100D7000BA4200DC17463A461B9FDDF864C0FF8983
:100D80006F436D1C2CF81720159A00EB42000A8C5B
:100D9000AA423FF790AEC1E90036059888600898EE
:100DA000C8600298086106984861049888611CB080
:100DB00090B2BDE8F08F00004480FFFF420005D0F4
:100DC000C0F3C7525242914201DC0020704700EB51
:100DD000C15070472DE9FE4F804681EA0300C00FE5
:100DE0000C46009021F0004123F00045B8EB0200D2
:100DF000A94105D24046214690461C460B46024674
:100E000023F00040104347D0270DC7F30A00C3F377
:100E10000A510290401A019040286BDAC3F3130084
:100E200040F4801B0098924620B10023D2EB030AC5
:100E300063EB0B0B01985946C0F14002504600F09D
:100E40008AF906460D4650465946019A00F0A2F925
:100E500010EB08006141002487EA115284EAE7732D
:100E60001A4340D0009A62B3019A012A4FEA07520E
:100E700015DC001B61EB02014FF0004202EA075251
:100E8000CDE90042001C41F5801132462B4600F0AE
:100E9000A2F903B0BDE8F08F40462146F9E7001BF8
:100EA00061EB0201001C41F5801300185B41201822
:100EB000A2F5001747EB030140EAD570B6196D4162
:100EC00011E06D084FEA360645EAC0754FEA075251
:100ED000001B61EB0201001C41F5801149084FEA3B
:100EE00030000019514132462B4603B0BDE8F04FA7
:100EF00000F062B90098012240000023D0EB02020A
:100F000063EBE073009821464FEAE074B8EB000011
:100F100061EB0401E9E783F000435BE781F0004106
:100F200058E72DE9FE4F81EA030404F0004421F064
:100F3000004100944FF0000B23F0004350EA0104FD
:100F40005ED052EA03045BD0C3F30A54C1F30A55DE
:100F50002C44A4F2F3340194A0FB0254C1F3130116
:100F600041F48011C3F3130343F4801301FB0244E3
:100F700000FB034E840A970A44EA815447EA8357E8
:100F8000A4FB076802958D0A05FB07854FEA932CA1
:100F900004FB0C542705029D4FEA065847EA163712
:100FA000B5EB08056EEB070C870E920E47EA81172A
:100FB00042EA8312A7FB0201B6EB0B0164EB0004CB
:100FC0002B0D43EA0C335E1844EB1C50DA465146B5
:100FD000E7FB0201C5F313044FEA0B3343EA145352
:100FE0004FEA0432019C43EA0603A4F10C04029484
:100FF000009CCDE900B400F0EEF803B0BDE8F08F3E
:1010000000200146F9E72DE9F04D81EA030404F0E0
:10101000004B21F0004514464FF0000A23F0004138
:1010200050EA050220D054EA01021DD0C5F30A5748
:101030000246C5F31303C1F31300C1F30A5640F48B
:10104000801543F48013A7EB0608101BD64608F260
:10105000FD3873EB050002D308F1010801E0921896
:101060005B41B8F1000F03DA00200146BDE8F08DC6
:1010700000204FF48011064684460EE0171B73EBE8
:10108000050705D3121B63EB050306434CEA010C6D
:1010900049084FEA300092185B4150EA0107EDD150
:1010A00052EA030012D082EA040083EA05010843F1
:1010B00005D0101BAB4106D20122002306E000221E
:1010C0004FF0004302E06FF0010253101AEB0600EC
:1010D0004CEB085110EB0A0041EB0B01BDE8F04D61
:1010E00000F06AB80EB540F2334102910021CDE91B
:1010F00000110A460B4600F06EF803B000BDC1F3C4
:101100000A5210B5C1F3130140F2FF3341F48011CC
:101110009A4201DA002010BD40F233439A42A2F213
:10112000334203DC524200F025F810BD904010BD60
:1011300000F0004230F000400AD0C10D01F56071AE
:10114000C0F3160042EA0151C2084007114370473C
:10115000002001467047202A04DB203A00FA02F101
:10116000002070479140C2F1200320FA03F3194395
:1011700090407047202A04DB203A21FA02F0002137
:10118000704721FA02F3D040C2F120029140084397
:1011900019467047202A06DBCB17203A41FA02F0A5
:1011A00043EAE07306E041FA02F3D040C2F12002C4
:1011B000914008431946704710B5141E73F100049E
:1011C00008DA401C41F1000192185B411A4301D139
:1011D00020F0010010BD2DE9F04D92469B4611B163
:1011E000B1FA81F202E0B0FA80F220329046FFF7C5
:1011F000B2FF04460F4640EA0A0041EA0B0153469B
:101200005A46084313D0114653EA010019D0C8F1D9
:1012100040025046FFF7AEFF05460E46504659467F
:101220004246FFF798FF084305D0012004E020461E
:101230003946BDE8F08D0020054346EAE0762C43B0
:1012400037430A986305E40AA0EB08000022FD0A70
:1012500044EA47540A3002D500200146E9E7010577
:1012600010196941DDE9084500196941BDE8F04DF3
:10127000A2E70000064C074D06E0E06840F00103DD
:1012800094E8070098471034AC42F6D3FEF780FF8D
:1012900038900F0858900F0870B58C1810F8015B43
:1012A00015F0070301D110F8013B2A1106D110F8FF
:1012B000012B03E010F8016B01F8016B5B1EF9D103
:1012C0002B0705D40023521E0DD401F8013BFAE789
:1012D00010F8013BCB1A921C03E013F8015B01F8F4
:1012E000015B521EF9D5A142D8D3002070BD10B5C4
:1012F000891A00F0B1FD002010BD000070B5244C2B
:10130000A16AA06900F0ECFC002840D0A06880B37E
:10131000A06900F0DDFC0028FAD1A16AA06900F004
:1013200025FC1C48E16B4FF480368160A168751E76
:10133000B14200D3294601611649A06900F000FDC1
:101340000121A06900F028FCA068B04201D201464A
:1013500000E02946E26BB04202EB4101E16300D2BA
:101360000546401BA060A069BDE87040012100F067
:1013700013BC0021A06900F00FFCA16AA06900F075
:10138000F5FBE06BBDE87040002100F00DBE70BDC4
:101390009800002010230020F8B52F4C206900256C
:1013A0000126012839D10121606901F05BFA002191
:1013B000A06900F0F1FBA06900F0F8FB2748216A62
:1013C0000160E169C0E901154021C1604FF6FE717D
:1013D000C0E90415B10281614900C1618900C0E919
:1013E00008150901C0E90A150563456301468563CF
:1013F000A06900F0A5FC01221021A06900F08AFC80
:1014000094F824008DF800008DF801508DF80250FA
:101410008DF80360684601F0E1F92069104C01285D
:1014200013D000F059FB01227121204601F03EFB50
:1014300033208DF800008DF801508DF802508DF8A2
:101440000360684601F0CAF9F8BD01220221204676
:1014500001F0DEFAF8BD0000980000201023002003
:10146000003C004070B5104C2569104A2346012D00
:101470009B69906013D011610C49184600F060FC24
:101480000121A06900F088FB09480088400509D4C3
:10149000BDE87040064801211C3800F096BF48089E
:1014A0001061E9E770BD00009800002010230020C3
:1014B0001C3C004010B5074C2060084600F00CF8BA
:1014C00020680028FCD1BDE8104000214FF080408A
:1014D00001F09BBC200000203EB504464FF0804543
:1014E0000021284601F091FC00220121284601F04C
:1014F000A4FC022C02D0012C02D004E00B2001E05D
:1015000042F6DF6001900520ADF800000020ADF844
:101510000800ADF802006946284601F02DFD0121C2
:10152000284601F06FFC0121284601F061FC0122F0
:101530001146284601F081FC0121284601F065FC96
:101540003EBDFEE730B50446012189B0C80301F075
:1015500095F9154D284601F063FA029400246815A8
:10156000ADF80240ADF80440ADF80000ADF806005B
:10157000ADF80C406946284600F032FF0B48006980
:1015800002280ED10121000701F078F90494059496
:1015900004A90020079400F0C7FA0121002000F000
:1015A0008FFA09B030BD0000003C004098000020D8
:1015B0002DE9FC410121082001F054F901278DF8A3
:1015C000047002248DF80540002510268DF8065081
:1015D00000968DF807506946374800F0B3FD0121A9
:1015E000072001F03FF98DF804408DF805408DF893
:1015F00006704FF41070314F00908DF80750694617
:10160000384600F09FFD04220621384600F0EBFD2D
:1016100004220921384600F0E6FD8DF804404FF41D
:10162000A0508DF80540264F00908DF806508DF89B
:1016300007506946384600F085FDDFF888800622AD
:101640000421404600F0CFFD06220A21384600F072
:10165000CAFD1D48006902280AD069464046009626
:1016600000F070FD06220C21384600F0BCFD0DE0B4
:101670000121084601F0F6F803208DF804000096D9
:101680008DF807506946404600F05CFD8DF8044037
:1016900080208DF8054000908DF806508DF8075099
:1016A0006946384600F04EFD06220721384600F014
:1016B0009AFDBDE8FC810000000C024000040240DD
:1016C0000008024000000240980000202DE9FF4180
:1016D00017460E46FFF76CFF00F04AF90121480556
:1016E00001F0CCF8404C204600F0BAFD0020ADF8E7
:1016F00004004BF6FF70ADF806003320ADF808008B
:101700002015ADF80A000001ADF80C003748009034
:101710000121204600F09AFD6946204600F0ECFDCC
:101720000121022000F04EF90446AF21042000F010
:1017300049F92F4D0444AF2028708121052000F085
:1017400041F904440421062000F03CF904443046E9
:1017500000F024F92869022818D10121082000F09E
:1017600031F904440121092000F02CF90444C0217E
:101770000E2000F027F904440021142000F022F983
:1017800004440021152000F01DF904449E2102208C
:1017900000F018F9044400210A2000F013F9044471
:1017A0002869022804D004210E2000F00BF904441B
:1017B0000021272000F006F904440F211F2000F02B
:1017C00001F904440A211A2000F0FCF804440A211B
:1017D0001B2000F0F7F804443846FFF7B3FE04B0CE
:1017E0002046BDE8F081000000540040A0860100C2
:1017F00098000020012804D003480178042000F05C
:10180000E1B8FF21FAE70000980000202DE9F04739
:10181000514C81464FF49610E0604FF400364F4D26
:1018200003E0E268501EE0606FD33146284600F0C6
:101830004DFD0028F5D10121284600F033FD4FF47D
:101840008056E660464F03E0E068411EE16071D3D8
:101850003946284600F0EBFC0028F5D00022942100
:10186000284600F0A8FDE660DFF8F88003E0E068B5
:10187000411EE1605ED34146284600F0D8FC0028B6
:10188000F5D04946284600F09EFDE660DFF8D88096
:1018900003E0E068411EE1604CD34146284600F079
:1018A00015FD0028F5D00121284600F0FBFCE6607C
:1018B00003E0E068411EE1603CD33946284600F071
:1018C000B6FC0028F5D001229421284600F073FDD3
:1018D000E660254FBF1E03E0E068411EE16029D3AA
:1018E0003946284600F0F2FC0028F5D000212846B1
:1018F00000F093FC1948183000880121284600F0B8
:10190000DBFCE660184F3C3704E013E0E068411E62
:10191000E1600FD33946284600F0D8FC0028F5D006
:10192000284600F045FD0746E66007E0E068411EF6
:10193000E16003D2BDE8F04700F02EB828888005AA
:10194000F4D40121284600F068FC0849284600F03C
:101950007AFC3846BDE8F08798000020005400402B
:1019600001000300820007000400001000040010C2
:1019700010B5084C00221021204600F048FC44F627
:10198000FF7000F008FA20460122BDE81040102147
:1019900000F03DBC000C02400020704770B5E62806
:1019A00002D9A0F1E70401E000F11904E1B220201E
:1019B00000F008F80546E1B2212000F003F82844C1
:1019C00070BD00002DE9F047384C4FF4961788465B
:1019D0008246E7604FF40036354D03E0E068411E73
:1019E000E16038D33146284600F070FC0028F5D17C
:1019F0000121284600F056FC4FF48056E660DFF8DF
:101A0000B49003E0E068411EE16024D349462846D3
:101A100000F00DFC0028F5D000229421284600F0AB
:101A2000CAFCE660DFF8909003E0E068411EE160E8
:101A300011D34946284600F0FAFB0028F5D051465C
:101A4000284600F0C0FCE6601B4EB61E07E0E068CA
:101A5000411EE16003D2BDE8F047FFF79DBF31466C
:101A6000284600F0E4FB0028F1D04146284600F06B
:101A7000AAFCE760114E05E0E268501EE06001D26A
:101A8000FFF78AFF3146284600F020FC0028F3D0FB
:101A90000121284600F010FC5046FFF7B7FE4045F4
:101AA00002D00120BDE8F0870020FBE7980000206D
:101AB00000540040010003008200070004000010F1
:101AC000044A01238340106809B1184300E0984399
:101AD000106070470074004010B586B001211048B6
:101AE00000F0C0FE0121480700F0C8FE102004905D
:101AF00003208DF8140000248DF8174004A909482C
:101B000000F020FB0094019469460020039400F04B
:101B10000BF801210020FFF7D3FF06B010BD000035
:101B2000010020000000024030B5084C236840F658
:101B3000FE7282409343D1E900252A43D1E9025144
:101B40000D432A4382401A43226030BD0074004096
:101B5000034A08B5104408300090016008BD000039
:101B600000740040FFF7CABBFFF7C8BB074A9042AA
:101B700001D2074801E005481038064A8B0001EA07
:101B8000020101D5C1607047816070471064024056
:101B9000006002407D0F7D0F0029016802D041F0F6
:101BA000010101E021F00101016070472DE9F043DE
:101BB000016821F001010160002101604160816044
:101BC000C1600161212141613C493C4A3D251039F8
:101BD000904202D18D60BDE8F083384A4FF47466BC
:101BE0001832904201D18E60F5E7344A4FF47417F1
:101BF0003032904201D18F60EDE7304A4FF0746C83
:101C00004832904202D1C1F808C0E4E72B4B2C4A7D
:101C10006033984201D1CA60DDE7284C294B783403
:101C2000A04201D1CB60D6E7DFF89080264C08F1C6
:101C30009008404501D1CC60CDE7DFF880804FF0BF
:101C40003D5908F1A808404502D1C1F80C90C2E7FF
:101C50001E49DFF878800839404501D10D60BAE7A8
:101C60001A4D1835A84201D10E60B4E7174D303532
:101C7000A84201D10F60AEE7144D4835A84202D109
:101C8000C1F800C0A7E7114D10496035091FA842EF
:101C900001D10A609FE70D4A7832904201D10B6072
:101CA00099E70A4A9032904201D10C6093E7074AC3
:101CB000A83290428FD1C1F800908CE710600240AA
:101CC0003D000020400F002000003D201064024035
:101CD000014600200968C90700D0012070470000B4
:101CE0000246094B00209A4201D2084A01E0064A06
:101CF000103A8B0001D5526800E01268044B1A407C
:101D00000A4200D001207047106402400060024087
:101D10007D0F7D0F0B0607D5436912B143F0800399
:101D200001E023F080034361802908D0002A026883
:101D300001F01E0101D00A4300E08A4302607047AF
:101D400030B50368124ACC6813400A682243D1E9CF
:101D500005452C432243CC6922430C6A22434C6A3A
:101D600022438C6A22434C6B22438C6B22431A43DE
:101D70000260426922F00703D1E90B2422431A438F
:101D800042610A6942604A6882608968C16030BD08
:101D90003F801CF0704701B5009801E0401E0090A4
:101DA0000028FBD108BD0020704710B5642901D977
:101DB000642105E0C1EB01216423B1FBF3F1C9B259
:101DC000FFF784FC08B1012010BDFFF7E5FA002001
:101DD00010BD000070B51E4C1E4D80B10020FFF7F5
:101DE00009FD217806460420FFF7ECFD06449E21FC
:101DF0000220FFF7E7FDF04215D0012070BD012061
:101E0000FFF7F8FC064601210220FFF7DBFDF04258
:101E1000F3D100220221284600F0FAFD0021A0693A
:101E2000FFF7BAFE11E001220221284600F0F0FD82
:101E30000121A069FFF7B0FE06481C30008840056C
:101E400003D40121284600F0C0FA002070BD000034
:101E500098000020003C00402DE9F041104C0D4658
:101E600007464FF6FF766160B1F5802F01D2A908D1
:101E700000E03146FFF7F6FA60684FF4803188429F
:101E800001D2024600E03246C2EB5502A26088420F
:101E900000D3304607EB4000E0630020BDE8F0814E
:101EA000980000201C4910B508610C6900224FF40D
:101EB0000013012C17D0022814D11848C1E90530AD
:101EC0001748C1E907020B20486216488862154886
:101ED0001038C8621448086312481838486312481A
:101EE000C01C886310BD0D48A830C1E905300F48FB
:101EF000C1E907022F2048624FF0205088624FF05E
:101F00001050C8624FF0015008634FF0085048630A
:101F10004FF00450E5E700009800002010600240F8
:101F20000C74004020000010010080100C3C0040A8
:101F300010B504460120FFF75DFC022C4FF09F0115
:101F40004FF002000ED0FFF73DFD044640F6FF7053
:101F5000FFF721FF00221021104800F058F92CB1A2
:101F6000012010BDFFF72EFD0446F8E70C4C0021C0
:101F7000A069FFF711FED4E90A100143206B014369
:101F8000606B0143A069FFF7F1FD0021054800F0F7
:101F90001CFA6068A060002010BD0000000C024028
:101FA00098000020003C00403A2202490248FFF716
:101FB0009EB90000301B0F001041000810B5012031
:101FC00000F078F848B10B490B7800200A4A012B41
:101FD00001D00B7833B110700870BDE810400120BB
:101FE00000F062B801200870044908600220FFF781
:101FF0009FFFF2E72400002000000020480000209E
:1020000010B5022000F056F800280FD00848437899
:1020100000210122012B06D001704270BDE8104062
:10202000022000F041B802704170F7E710BD0000D7
:102030000400002030B585B00121102000F012FC12
:102040000121880300F032FC002403208DF81040A9
:1020500003908DF8134003A9124800F073F8012192
:10206000042000F09BFD022000908DF80440082021
:102070008DF8050001258DF80650684600F02AF815
:10208000A80200F0DDFB07208DF808008DF809405C
:102090008DF80A408DF80B5002A800F09FFB05B0A8
:1020A00030BD000000100240014908607047000088
:1020B000143C0140064A014600201268044B0A40C5
:1020C00014331B680B4202D0002A00D00120704755
:1020D000003C014030B51A498379026853B30B685C
:1020E00093430B600A1D13680468A34313600279CD
:1020F0000A441368046823431360114A08321368C2
:102100000468A3431360131D1C680568AC431C607E
:102110004479102C05D021440A68006802430A6003
:1021200030BD1168046821431160196800680143DB
:10213000196030BD0079084401689143016030BDE9
:10214000003C0140F0B50023012403270D6804FA88
:1021500003F21540954242D1D0F800C05E0007FA64
:1021600006F52CEA050CC0F800C091F804C0D0F8C0
:1021700000E00CFA06FC4CEA0E0CC0F800C091F826
:1021800004C0BCF1010F02D0BCF1020F1FD1D0F886
:1021900008C02CEA050CC0F808C091F805C0D0F8BA
:1021A00008E00CFA06FC4CEA0E0CC0F808C0D0F8A7
:1021B00004C02CEA020CC0F804C0426891F806C0C2
:1021C0000CFA03FC1FFA8CFC42EA0C024260C26863
:1021D000AA43C260CA79C568B2402A43C2605B1C88
:1021E000102BB3D3F0BD4B07DB0E9A40C90810B5D6
:1021F00000EB8100016A0F249C40A1430162016A47
:102200001143016210BD41837047018370470AB1D9
:102210000183704741837047FEE70029018802D09F
:1022200041F4806101E021F4806101807047024641
:102230000020938A128B43EA024323F07F429143AA
:1022400000D101207047C94381827047002901886D
:1022500002D041F0010101E021F00101018070474D
:102260000D4910B5884202D101214C050AE00B4905
:10227000884202D101218C0504E0094988420AD133
:102280000121CC05204600F005FB2046BDE81040AA
:10229000002100F0FFBA10BD00540040005800407B
:1022A000005C00400029018802D041F4807101E007
:1022B00021F48071018070470029018802D041F427
:1022C000007101E021F40071018070470CB50246F5
:1022D000002000920A0F21F07F41019202D0009A63
:1022E000143202E0009A090C1832009212680A4275
:1022F00000D001200CBD00007FB5044680880D464B
:1023000020F03F06684600F0E9FA27490298B0FB42
:10231000F1F189B20E43A680228822F001022280C8
:10232000224B2A689A421BD85200B0FBF2F080B2CE
:10233000042800D20420491C2184A083208840F076
:102340000100208021884FF6F5300140A8886A8975
:10235000104308432080A8892989084320817FBD34
:10236000EB88A3F53F46FF3E0BD002EBC20303EB25
:102370000212B0FBF2F080B240F48040020506D0B9
:1023800007E002EB4202B0FBF2F080B2F6E740F069
:1023900001004FF4967251434FF47A72B1FBF2F19F
:1023A00040F40040C7E7000040420F00A086010053
:1023B000008AC0B2704712B141F0010101E001F0A2
:1023C000FE0101827047018270470029818B02D093
:1023D00041F4806101E021F4806181837047000055
:1023E000F0B502220023858B01244FF240063540D0
:1023F00085830284858B8E68022E3ED08A8802B146
:102400000224274A13681B0203D5136823F4000330
:102410001360234A7C3213681268C3F38813204E7A
:10242000C2F30272361F36681E4F06F03F06B7FB36
:10243000F6F65E43B6FBF2F2CB88B3F5007F2CD004
:102440006301B2FBF3F200BF02EB82028B68520021
:10245000B2FBF3F2521D92B20A23B2FBF3F202F086
:102460000103D21A4FF6FF74C2F34F0204EA0323AA
:10247000941EFE2C01D302220023CC881A4314435D
:1024800004840A884B881A438B8889890B431A4332
:102490002A4342F400618183F0BD120AD4E70000B0
:1024A0000838024000127A0038B5044600208DF842
:1024B000000000F029F86078217822790843E1785B
:1024C00011430843A178012208438DF80000202120
:1024D000684600F001F938BD38B5044600208DF893
:1024E000000001223821684600F09EF820786178CB
:1024F00001220843A17808438DF80000382168467E
:1025000000F0EAF838BD0000F0B5012187B00803FB
:1025100000F0CCF90121084600F0A4F901211020B7
:1025200000F0A0F90121102000F09CF901211020F9
:1025300000F098F9394E052211463046FFF753FE58
:10254000052206213046FFF74EFE052207213046C0
:10255000FFF749FE02258DF8045000248DF806404F
:1025600020208DF8075000908DF8055069463046C0
:10257000FFF7E8FD8020009069463046FFF7E2FD56
:102580004020009069463046FFF7DCFD244F384676
:1025900000F046FAADF810402802ADF8120007200E
:1025A000ADF81800ADF8084008264FF48270ADF879
:1025B0000C40ADF81460ADF80A00ADF80E40ADF86F
:1025C000164002A9384600F081FA0121384600F091
:1025D00015FA009601268DF80460124F8DF806401A
:1025E0008DF8055069463846FFF7ACFD082138469E
:1025F000FFF70BFE8DF804408DF806408DF805506E
:1026000000968DF8074069463846FFF79BFD6946FE
:1026100038460095FFF796FD07B0F0BD0000024078
:1026200000300140001002402DE9F04114460546FB
:10263000012A02D941F0C00601E041F080060C4FAA
:1026400008213846FFF7DFFD304600F013F806E0BA
:10265000002000F00FF8641E05F8010BA4B2002C56
:10266000F6D13846BDE8F0410821FFF7CEBD0000A5
:10267000001002402DE9F041144C4FF480560746FB
:102680002660134D03E02068411E21600BD3022118
:10269000284600F0EFF90028F5D03946284600F02A
:1026A00013FA266006E000F015F80CE02168481ED9
:1026B0002060F8D30121284600F0DCF90028F5D08D
:1026C000284600F0FFF9C0B2BDE8F0819400002078
:1026D00000300140FEE700002DE9F04114460546B8
:1026E0000E46012A01D941F040060B4F0821384619
:1026F000FFF789FD3046FFF7BDFF05E02878FFF7BB
:10270000B9FF641EA4B26D1C002CF7D13846BDE899
:10271000F0410821FFF779BD00100240FEE71FB528
:10272000002040248DF804408DF8050007218DF825
:1027300006108DF800008DF807008DF8080001A83C
:10274000FFF7B2FE8DF80C4010208DF80D00202010
:102750008DF80E0003A8FFF7BFFE3F208DF80000A4
:10276000012222216846FFF7B7FF50208DF80000B4
:10277000012238216846FFF7AFFFAA208DF800003C
:1027800001223B216846FFF7A7FF0A208DF80000D1
:1027900001223C216846FFF79FFF4C208DF8000086
:1027A000012230216846FFF797FF03208DF80000D3
:1027B00001223D216846FFF78FFF7F248DF80040FE
:1027C00001223E216846FFF787FF8DF80040012275
:1027D0003F216846FFF780FF1FBD704730B50F22CD
:1027E000C47801780123FCB1144C246801F1E02184
:1027F00004F4E064C4F5E064C4F30724C4F1040500
:10280000E2404478AC408578154025432A0181F8A0
:102810000024007800F01F018B404009800000F187
:10282000E020C0F8003130BD01F01F0083404809AE
:10283000800000F1E020C0F8803130BD0CED00E0F8
:102840000249084302490860704700000000FA0589
:102850000CED00E0014800F0D7BB0000EC030020C5
:1028600070470000044A0029116801D0014300E0CC
:10287000814311607047000030380240044A00294B
:10288000116801D0014300E08143116070470000EE
:1028900040380240044A0029116801D0014300E099
:1028A000814311607047000020380240044A00292B
:1028B000116801D0014300E08143116070470000BE
:1028C00044380240044A0029116801D0014300E065
:1028D00081431160704700002438024070B5204ADF
:1028E0001168204C11F00C0104D06610042903D0AB
:1028F000082903D004601BE0066019E01849091F8D
:102900000B68C3F380550B6803F03F0315B1B6FBAA
:10291000F3F301E0B4FBF3F30C680968C4F3881423
:102920006343C1F30141491C4900B3FBF1F101606C
:1029300011680F2303EA11110B4B5C5C0168E14045
:1029400041601468072505EA94241C5D21FA04F40B
:102950008460126805EA52329A5CD140C16070BD51
:10296000083802400024F400D800002010B50F4CB5
:102970006021204600F085F8002816D0204600F09F
:10298000A1F80C4C41BA0A4A206A22F81010401CE7
:102990002062402809D3002020623222064B0448DE
:1029A000A16AFDF77CFC0120606110BD0038004089
:1029B00090220020540000201C20002010B50D4C57
:1029C0000221204600F056F8002811D00A4800697C
:1029D000022805D1FFF7E7F901460420FFF7B8F810
:1029E000FFF7E1F901462046BDE8104000F06CB861
:1029F00010BD0000003C0040980000200029018824
:102A000002D041F0400101E021F040010180704717
:102A1000002A828801D00A4300E08A4382807047FE
:102A2000114910B588420AD1841401212046FFF7CC
:102A300049FF2046BDE810400021FFF743BF0B4986
:102A4000884202D10121041404E0094988420AD1D4
:102A50000121C4132046FFF71DFF2046BDE81040AA
:102A60000021FFF717BF10BD0030014000380040C3
:102A7000003C00400246002012890A4200D001209A
:102A8000704710B501F00F040122034602FA04F466
:102A9000002009098A4091B29A88A4B20A40198993
:102AA000214202D0002A00D0012010BD09090123D3
:102AB0008B40002A828899B201D00A4300E08A4301
:102AC00082807047808970478181704730B5028865
:102AD0004C8802F441530A88CD8822438C882C43C9
:102AE00022430C8922434C8922438C892243CC897E
:102AF00022431A430280828B22F400628283098A75
:102B0000018230BD1CB504460E48012150F8240056
:102B1000FFF7A8FE0B480021083830F81400009099
:102B200001208DF804008DF806108DF807000220B2
:102B30008DF805000448694650F82400FFF702FBB1
:102B40001CBD000028900F08840000200349044A9F
:102B500031F8101052F820004183704720900F0880
:102B6000840000200349044A31F8101052F8200074
:102B70000183704720900F0884000020044951F819
:102B800020104A69034B33F8100042404A617047F5
:102B90008400002020900F087047000010B58A07BD
:102BA00021F003040849130F21440F22D1F80848EB
:102BB0009A409443C1F80848D1F808289840024345
:102BC000C1F8082810BD0000003001400CB50022FB
:102BD0002E4901920092086840F4803008604FF45A
:102BE000A063086800F4003000900198401C019038
:102BF000009810B901989842F3D1086883032448DB
:102C000041D501220092224A3832136843F08053A2
:102C10001360204A136843F4804313600268026023
:102C2000026842F400420260026842F4A05202606C
:102C3000031F194A1A600A6842F080720A600A6823
:102C40009201FCD5154B40F205621A60026822F031
:102C500003020260026842F0020202600268C2F3EC
:102C60008102022AFAD1026822F400020260084AB4
:102C70000B487C321060086840F08060086008688B
:102C80000001FCD50CBD0092EDE7000000380240C9
:102C9000083802400070004008544007003C0240E1
:102CA0008040003010B500F0A5F9044800780128F4
:102CB00003D10348C188491CC18010BD24000020F5
:102CC000040000200F4810B5016841F001010160C7
:102CD0000C4A00210832116002680B4B1A40026056
:102CE000031D0A4A1A60026822F480220260054825
:102CF0000C300160FFF76AFF05494FF00060086083
:102D000010BD000000380240FFFFF6FE1030002426
:102D100008ED00E000F0CCB938B500208DF80000D7
:102D20002E48007848B1012239216846FFF77CFC23
:102D3000062227212A48FFF777FC2A4D0221284640
:102D400000F06FF8002848D00221284600F05AF819
:102D5000254CA07803280BD0A078042810D0A078A8
:102D6000062815D0A078E8B1A07807281ED029E061
:102D70000120FFF703FF0320FFF7E8FE00201FE01C
:102D80000020FFF7FBFE0320FFF7E0FE012017E025
:102D90000120FFF7DBFE0020FFF7D8FE0320FFF73E
:102DA000EDFE0FE00320FFF7DDFE0BE00120FFF753
:102DB000CDFE0020FFF7CAFE0220FFF7C7FE03206A
:102DC000FFF7C4FE284600F02AF8084980B2A08028
:102DD00009880144284600F0CDF838BD2B000020BA
:102DE0004C000020000800400400002002000020E9
:102DF0000029018802D041F0800101E021F080012A
:102E000001807047C943018270470029018802D0C0
:102E100041F0010101E021F0010101807047406BA8
:102E2000704702460020138A92890B4202EA01028F
:102E300002D0002A00D001207047002A828901D0E8
:102E40000A4300E08A4382817047000070B58AB06F
:102E500001210420FFF712FD4FF4A060FFF7F0FC02
:102E60001E208DF8200000248DF821408DF822408E
:102E700001258DF8235008A8FFF7B0FC0120FFF7CB
:102E800041FE0020FFF73EFE0320FFF73BFE1A48FD
:102E90001A491B4E0068ADF81C40B0FBF1F0401E13
:102EA0004FF6FF71ADF814000691ADF8164005A974
:102EB000304600F061F801213046FFF799FF1148D4
:102EC000ADF80040ADF8025040880290ADF80C40DB
:102ED0006946304600F018F80021304600F044F80A
:102EE000012202213046FFF7A8FF01213046FFF7FB
:102EF0008CFF0AB070BD00000C0000207064080058
:102F0000000800400000002030B5028C22F00102D1
:102F10000284028C8388048B22F0020224F0730561
:102F20000C882C438D8915434A882A430C4DA842AE
:102F300002D00C4DA8420DD122F00805CA8923F415
:102F400040732A4322F004058A882A430D8A1D43D0
:102F50004B8A2B438380048389684163028430BD9C
:102F60000000014000040140028B22F008020A43E5
:102F7000028370474163704730B50288164B174C87
:102F800098420DD0A0420BD0B0F1804F08D0144D24
:102F9000A84205D0134DA84202D0134DA84203D138
:102FA00022F070054A882A43104DA84206D0104DE1
:102FB000A84203D022F440750A892A4302804A6855
:102FC000C2620A880285984201D0A04201D1897A62
:102FD00001860121818230BD0000014000040140D2
:102FE0000004004000080040000C004000100040B9
:102FF000001400400348C169002902D0C169491E7C
:10300000C16170472800002038B505460024002023
:103010000090284600F0A4F8002847D0284600F089
:10302000A6F80090009808B9002038BD0098C0F3B9
:10303000C00018B1284600F075FF04430098C0F3A3
:10304000001018B1284600F0BBFE04430098C0F3FE
:10305000401018B1284600F0FAFC04430098C0F371
:10306000806018B1284600F014FE04430098C0F3B5
:10307000406018B1284600F0E7F804430098C0F318
:10308000006018B1284600F078FD04430098C0F3B2
:10309000407018B1284600F09DF804430098C0F332
:1030A000405018B1284600F0ACF804432046BCE775
:1030B00010B501218C072046FFF7B3FE002809D088
:1030C00001212046FFF79EFE0649086818B10868EE
:1030D000401E086010BD2046BDE810400021FFF7EB
:1030E00094BE0000200000200121FEF7E3B910B5D6
:1030F00000EB8100002350F8901F4FF000420124A4
:1031000064F3DC420A610068016821F0804141F00B
:1031100000410160184610BD10B500EB810100228E
:10312000D1F89030196841F0404111F4402F09D096
:10313000C1F38144022C05D04069006910F47F0F6F
:1031400003D004E0C068C06AF8E721F000411960CC
:10315000104610BD4269106861F3010010607047AD
:10316000C068406910F0010000D001207047C068BD
:103170004169806908407047D0F8CC00006820F0B1
:103180002E007047406940697047034610B5002023
:10319000D21C9208D3F8D03003E01C6841F8044BED
:1031A000401C9042F9D3084610BD70B50446FFF7A5
:1031B000E3FF40F4807554F8CC0F05600A20FFF758
:1031C00093FF216825F4807008601420FFF78CFFBE
:1031D000012070BD38B504460021C4F8101200204B
:1031E0000090D4F8AC04016820468847009820F08D
:1031F000005000F1005000900098E1684861012003
:1032000038BD0CB50146D1F89000006800900098D8
:1032100020F0004000F100400090009820F0804035
:1032200000F180400090009AD1F8900002600020E8
:103230000190019820F4001000F500100190019811
:10324000CA68506101200CBD7CB5054600240026EB
:103250002846FFF797FF019000BF1BE0019880B25E
:103260000121A1400840A0B105F1900050F82400D0
:10327000006800900098C0F3C03028B1214628466D
:1032800000F00DF8064304E02146284600F01BFA42
:103290000643641C2878A042E0D830467CBD70B557
:1032A00086B005460C4605F1900050F82460B068E1
:1032B0000590F0680490DDE904100840059005F1E0
:1032C000900050F8240000680390002004900598B6
:1032D000C0F38000D0B100200190019820F00400DC
:1032E000001D01900198B06005F1900050F8240095
:1032F000C0680190019820F00200801C019005F147
:10330000900050F824000199C16073E00598C0F363
:10331000401048B100200190019820F0200020309A
:1033200001900198B06065E00598C0F3C00078B3E3
:1033300005F1900050F82400C0680190019820F039
:103340000200801C019005F1900050F824000199C2
:10335000C160052105F523700155002001900198F9
:1033600020F01000103001900198B0600020019012
:10337000019820F00800083001900198B06005988D
:1033800020F010000590E1B22846FFF7C5FE31E0BD
:10339000FFE70598C0F3802060B305F1900050F876
:1033A0002400C0680190019820F00200801C019068
:1033B00005F1900050F824000199C160E1B228465F
:1033C000FFF7AAFE00200190019820F010001030B5
:1033D00001900198B060082105F523700155002087
:1033E0000190019820F4806000F5806001900198C0
:1033F000B06000BF0598C0F34020F8B105F190001F
:1034000050F82400C0680190019820F00200801C50
:10341000019005F1900050F824000199C160E1B2DB
:103420002846FFF779FE00200190019820F40070F3
:1034300000F5007001900198B06041E1059800F03E
:103440000100002871D0E878012812D105F1900020
:1034500050F824000069029005F52B7000EB441031
:1034600000690299C1F31201411A05F5147040F880
:103470002410012105F5237001550021783840F80A
:10348000241000200190019820F00100401C0190C0
:103490000198B0600398C0F3814020B10398C0F355
:1034A000814002282AD105F1900050F82400C0681C
:1034B0000190019820F00200801C019005F190001D
:1034C00050F824000199C160E1B22846FFF724FEBC
:1034D00000200190019820F0100010300190019818
:1034E000B06005F52B7000EB4410007E80F0010108
:1034F00005F52B7000EB44100176E1E00398C0F372
:103500008140032899D1039820F0005000F1005029
:10351000039005F1900050F8240003990160012107
:1035200005F29B200155CBE0FFE70598C0F3400072
:10353000002851D005F1900050F82400C068019097
:10354000019820F00200019005F1900050F824004D
:103550000199C16005F52370005D012804D10121A6
:1035600005F29B2001552DE005F52370005D05282F
:1035700004D1042105F29B20015523E005F52370B9
:10358000005D062804D005F52370005D082808D1E9
:10359000002105F5057040F82410032187300155FE
:1035A00010E00398C0F3814003280BD105F52B7080
:1035B00000EB4410007E80F0010105F52B7000EB5C
:1035C0004410017600200190019820F00200801C38
:1035D00001900198B06073E00598C0F3C01040B34B
:1035E00005F1900050F82400C0680190019820F087
:1035F0000200801C019005F1900050F82400019910
:10360000C16005F5057050F82410491C40F82410DD
:10361000062178300155E1B22846FFF77DFD0020F4
:103620000190019820F08000803001900198B060F6
:1036300046E00598C0F30010E8B30398C0F381405A
:1036400003281ED105F1900050F82400C0680190B5
:10365000019820F00200801C019005F1900050F8C4
:1036600024000199C160E1B22846FFF755FD002012
:103670000190019820F01000103001900198B06086
:1036800018E00398C0F3814020B10398C0F3814053
:1036900002280FD1039820F0004000F10040039071
:1036A000039820F08040039005F1900050F824002A
:1036B0000399016000E003E0032105F52370015543
:1036C000012006B070BD7FB505460C4605F190009F
:1036D00050F82460B0680390F0680290DDE90210B1
:1036E0000840039005F1900050F824000068019014
:1036F0000398C0F38000D0B100200090009820F023
:103700000400001D00900098B06005F1900050F892
:103710002400C0680090009820F00200801C0090F7
:1037200005F1900050F824000099C1608CE10398E5
:10373000C0F3401048B100200090009820F0200015
:10374000203000900098B0607EE1039800F0010006
:1037500038B3002105F5057040F8241005F19000FC
:1037600050F82400C0680090009820F00200801CEF
:10377000009005F1900050F824000099C160E1B27A
:103780002846FFF7C9FC00200090009820F00100B7
:10379000401C00900098B060012105F52370015590
:1037A00052E10398C0F3C00010B3002000900098CD
:1037B00020F00800083000900098B06005F19000FB
:1037C00050F82400C0680090009820F00200801C8F
:1037D000009005F1900050F824000099C160E1B21A
:1037E0002846FFF799FC052105F5237001552BE1CB
:1037F0000398C0F3001038B3002105F5057040F8B8
:10380000241005F1900050F82400C0680090009842
:1038100020F00200801C009005F1900050F8240078
:103820000099C160E1B22846FFF776FC00200090C5
:10383000009820F01000103000900098B060032134
:1038400005F523700155FFE00398C0F3C01040B3A5
:1038500005F1900050F82400C0680090009820F016
:103860000200801C009005F1900050F8240000999F
:10387000C160E1B22846FFF74FFC05F5057050F82E
:103880002410491C40F824100621783001550020EE
:103890000090009820F08000803000900098B06088
:1038A000D2E00398C0F3801038B3002105F505700D
:1038B00040F8241005F1900050F82400C0680090F2
:1038C000009820F00200801C009005F1900050F854
:1038D00024000099C160E1B22846FFF71DFC0020DA
:1038E0000090009820F04000403000900098B060B8
:1038F000042105F523700155A6E00398C0F380204C
:1039000060B305F1900050F82400C0680090009862
:1039100020F00200801C009005F1900050F8240077
:103920000099C160E1B22846FFF7F6FB0020009045
:10393000009820F01000103000900098B06008212E
:1039400005F52370015500200090009820F4806058
:1039500000F5806000900098B06075E00398C0F3B7
:103960004000002870D005F1900050F82400C06895
:103970000090009820F00200009005F1900050F8AF
:1039800024000099C16005F52370005D012815D160
:10399000012105F29B2001550198C0F381400228C6
:1039A00048D105F52B7000EB4410407E80F00101FA
:1039B00005F52B7000EB441041763BE005F52370D4
:1039C000005D032804D1022105F29B20015531E05E
:1039D00005F52370005D04280FD105F52B7000EB71
:1039E00044100079012803D1E1B22846FFF77FFB9C
:1039F000022105F29B2001551CE005F52370005DB6
:103A0000052804D1042105F29B20015512E005F59B
:103A10002370005D06280DD105F5057050F82400CF
:103A2000032807D1032105F29B2001550021873887
:103A300040F8241000200090009820F00200801C24
:103A400000900098B06000BF012004B070BD7CB54C
:103A50000446E068C06A00900098C0F3417104F524
:103A60002B7000EB41100069C01CC0F38F0673E09F
:103A70004FF6FF71009801EA80050098C0F341718C
:103A800004F52B7000EB41100069A84215D2009894
:103A9000C0F3417104F52B7000EB4110008A85B230
:103AA00000200190019820F0200020300190E06873
:103AB000806901998843E16888610098C0F3417189
:103AC00004F52B7000EB41100069C01CC0F38F0699
:103AD0000098C0F34172C0F3417304F52B7000EB02
:103AE00043102B46C168204600F02AFA0098C0F324
:103AF000417104F52B7000EB4110C068411900982A
:103B0000C0F3417204F52B7000EB4210C1600098C5
:103B1000C0F3417104F52B7000EB41100069411BAB
:103B20000098C0F3417204F52B7000EB4210016164
:103B30000098C0F3417104F52B7000EB411040690F
:103B400041190098C0F3417204F52B7000EB42104C
:103B50004161E068C06A0090009880B2B0420ADD1E
:103B60000098C0F3417104F52B7000EB411000691F
:103B700000287FF47DAF01207CBDFEB50446002601
:103B800000250020009002900190D4F8CC0000683D
:103B90000290D4F8CC0000680190019820F0040055
:103BA0000190019820F002000190019820F0080097
:103BB0000190019820F0200001900298C0F340008D
:103BC00060B1D4F8AC04416820468847019820F0E1
:103BD0000200801C0190012645F001050298C0F307
:103BE000C000002840D0019820F008000830019063
:103BF0000298C0F38000002836D00121C4F81012CA
:103C00000298C0F34140022804D00298C0F341401A
:103C1000012828D16069006800900298C0F34140F3
:103C2000022811D141F2707160694160009800F082
:103C30000300022818D0E07A012803D1022120468F
:103C4000FFF788FA01260FE04BF68031606941608A
:103C5000009800F00300012806D001212046FFF75C
:103C600079FA012600E001260298C0F3401030B135
:103C7000019820F020002030019045F0010516B198
:103C80002046FFF792FA0199D4F8CC00016028464B
:103C9000FEBD7CB504466069006900900098C0F3E1
:103CA000417104F52B7000EB41100069C01CC0F39A
:103CB0008F0674E04FF6FF71009801EA80050098C6
:103CC000C0F3417104F52B7000EB41100069A8426C
:103CD00016D20098C0F3417104F52B7000EB41102F
:103CE000008A85B200200190019820F0806000F1E8
:103CF00080600190E068806901998843E16888618B
:103D00000098C0F3417104F52B7000EB411000697D
:103D1000C01CC0F38F060098C0F34172C0F341731A
:103D200004F52B7000EB43102B46C168204600F0D1
:103D300007F90098C0F3417104F52B7000EB4110B6
:103D4000C06841190098C0F3417204F52B7000EB74
:103D50004210C1600098C0F3417104F52B7000EB74
:103D600041100069411B0098C0F3417204F52B70AB
:103D700000EB421001610098C0F3417104F52B7013
:103D800000EB4110406941190098C0F3417204F5FD
:103D90002B7000EB4210416160690069009000984F
:103DA00080B2B0420ADD0098C0F3417104F52B7077
:103DB00000EB4110006900287FF47CAF01207CBD3E
:103DC00030B585B00446002000900390039820F0A1
:103DD000100010300390E068806903998843E1681F
:103DE0008861E068006A0490049800F00F00009079
:103DF00004F190009DF8001050F821000068019037
:103E00000498C0F34340022806D0032878D0052840
:103E100077D0072873D175E00498C0F30A10002802
:103E200069DD04F52B709DF8001000EB4110C068AF
:103E3000002860D00498C0F30A1204F52B709DF896
:103E4000003000EB4310C1682046FFF79EF904984C
:103E500000F00F0104F52B7000EB4110C0680499CD
:103E6000C1F30A110144049800F00F0204F52B700D
:103E700000EB4210C160049800F00F0104F52B70B4
:103E800000EB411040690499C1F30A110144049800
:103E900000F00F0204F52B7000EB4210416104F5B5
:103EA0002B709DF8001000EB4110456904F514706B
:103EB0009DF8001040F8215004F190009DF800108A
:103EC00050F82100006902900298C0F3C940002810
:103ED00011DD019820F0004000F1004001900198B0
:103EE00020F08040019004F190009DF8002001999D
:103EF00050F82200016006E002E002E0FFE700BFA8
:103F000000BF00BF00BF00BF039820F010001030BA
:103F10000390E068806903990843E16888610120A3
:103F200005B030BD08B5014600200090009820F093
:103F30000800083000900098CA685061012008BD50
:103F400030B5C47800256CB900EB82000024DB1C7E
:103F50009B08D0F8D00003E051F8042B0260641CE9
:103F60009C42F9D3284630BDFEE70000154A0121E6
:103F7000D170154E0024347000F030F83A22134905
:103F80001348FDF7B4F9134D06202870A146124CD2
:103F900082464FF002080427307820B10220FDF756
:103FA000C7FF2F70F8E7207850B120780128F3D1AF
:103FB000504628702078FDF70DFF84F80080EBE76D
:103FC0004846F6E72800002000000020301B0F00C4
:103FD00010410008060000200400002010B504462F
:103FE000FEF79DFBFEF726F80120FDF75BFF044876
:103FF000224681780420FDF7D8FE002010BD000085
:104000002800002002E008C8121F08C1002AFAD1C7
:1040100070477047002001E001C1121F002AFBD148
:10402000704700000120FEF76DFD0020FEF76AFDDD
:104030000220FEF767FD0320FEF764FD0020FEF777
:1040400091FD1248FEF74AFC1048642100244068A4
:104050000725B0FBF1F0B0F1807F0BD220F07F415B
:104060004FF0E020491E4161094AF02182F8141DF9
:1040700084610561FEF7EAFE064804700648057093
:104080004BF68030FFF772FFFEE700009C0800202F
:104090000FE000E0000000200600002052494646E4
:1040A0006E4F0F0057415645666D74201200000098
:1040B0000100020080BB000000EE020004001000BE
:1040C00000006661637404000000CFD303006461E4
:1040D00074613C4F0F000000000000000000000071
:1040E00000000000000000000000000000000000D0
:1040F00000000000000000000000000000000000C0
:1041000000000000000000000000000000000000AF
:10411000000000000000000000000000000000009F
:10A24000000000000000000001000000010000000C
:10A2500001000000010000000100000001000000FA
:10A2600001000000000000000000000000000000ED
:10A2700000000000000000000000000000000000DE
:10A2800000000000010000000100000001000100CA
:10A2900001000100010001000100010001000000B7
:10A2A00000000000000000000000000000000000AE
:10A2B000000000000000000000000000000000009E
:10A2C000000000000000000000000000000000008E
:10A2D000000000000000000000000000000000007E
:10A2E000000000000000000000000000000000006E
:10A2F000000000000000000000000000000000005E
:10A30000000000000000000000000000000000004D
:10A31000000000000000000000000000000000003D
:10A32000000000000000000000000000000000002D
:10A33000000000000000000000000000000000001D
:10A34000000000000000000000000000000000000D
:10A3500000000000000000000000000000000000FD
:10A3600000000000000000000000000000000000ED
:10A3700000000000000000000000000000000000DD
:10A3800000000000000000000000000000000000CD
:10A3900000000000000000000000000000000000BD
:10A3A00000000000000000000000000000000000AD
:10A3B000000000000000000000000000000000009D
:10A3C000000000000000000000000000000000008D
:10A3D000000000000000000000000000000000007D
:10A3E000000000000000000000000000000000006D
:10A3F000000000000000000000000000000000005D
:10A40000000000000000000000000000000000004C
:10A41000000000000000000000000000000000003C
:10A42000000000000000000000000000000000002C
:10A43000000000000000000000000000000000001C
:10A440000100000001000000010000000000000009
:10A4500000000000000000000000000000000000FC
:10A4600000000000000000000000000000000000EC
:10A4700000000000000000000000000000000000DC
:10A4800000000000000000000000000000000000CC
:10A4900000000000000000000000000000000000BC
:10A4A00000000000000000000000000000000000AC
:10A4B000000000000000000000000000000000009C
:10A4C000000000000000000000000000000000008C
:10A4D000000000000000000000000000000000007C
:10A4E000000000000000000000000000000000006C
:10A4F000000000000000000000000000000000005C
:10A50000000000000000000000000000000000004B
:10A51000000000000000000000000000000000003B
:10A52000000000000000000000000000000000002B
:10A53000000000000000000000000000000000001B
:10A54000000000000000000000000000000000000B
:10A5500000000000000000000000000000000000FB
:10A5600000000000000000000000000000000000EB
:10A5700000000000000000000000000000000000DB
:10A5800000000000000000000000010000000100C9
:10A5900000000100000001000000000000000000B9
:10A5A00000000000000000000000000000000000AB
:10A5B000000000000000000000000000000000009B
:10A5C000000000000000000000000000000000008B
:10A5D000000000000000000000000000000000007B
:10A5E000000000000000000000000000000000006B
:10A5F000000000000000000000000000000000005B
:10A60000000000000000000000000000000000004A
:10A61000000000000000000000000000000000003A
:10A62000000000000000000000000000000000002A
:10A63000000000000000000000000000000000001A
:10A64000000000000000000000000000000000000A
:10A6500000000000000000000000000000000000FA
:10A6600000000000000000000000000000000000EA
:10A6700000000000000000000000000000000000DA
:10A6800000000000000000000000000000000000CA
:10A6900000000000000000000000000000000000BA
:10A6A00000000000000000000000000000000000AA
:10A6B000000000000000000000000000000000009A
:10A6C000000000000000000000000000000000008A
:10A6D000000000000000000000000000000000007A
:10A6E000000000000000000000000000000000006A
:10A6F000000000000000000000000000000000005A
:10A700000000000001000000010000000100000046
:10A710000100000001000000010000000000000036
:10A720000000000000000000000000000000FFFF2B
:10A730000000FFFF0000FFFFFFFFFFFFFFFFFFFF25
:10A74000FFFFFFFFFFFF000000000000000000000F
:10A7500000000000000000000000010000000100F7
:10A7600000000100000001000000000000000000E7
:10A7700000000000000000000000000000000000D9
:10A7800000000000000000000000000000000000C9
:10A7900000000000000001000000010000000100B6
:10A7A00001000100010001000100010001000000A2
:10A7B0000000000000000000000000000000000099
:10A7C0000000000000000000000000000000000089
:10A7D0000000000001000000010000000000000077
:10A7E0000000000000000000000000000000000069
:10A7F0000000000000000000000000000000000059
:10A800000000000000000000000000000000000048
:10A810000100000001000000010000000100000034
:10A820000100000000000000000000000000000027
:10A830000000000000000000000000000000000018
:10A840000000000000000000000000000000000008
:10A8500000000000000001000100010001000100F3
:10A8600001000100010001000100010001000100E0
:10A8700000000100000001000000010000000100D4
:10A8800000000000000000000000000000000000C8
:10A8900000000100000001000000010000000100B4
:10A8A00000000100010001000100010001000100A1
:10A8B0000100010001000100000001000000000093
:10A8C000FFFF0000FFFF0000000000000000FFFF8E
:10A8D000FFFFFFFFFFFF000000000000000000007E
:10A8E0000000000000000000000001000100010065
:10A8F0000100000000000000000000000000000057
:10A900000000FFFF0000FFFF0000FFFFFFFFFFFF51
:10A91000FFFFFFFFFFFF0000000000000000FFFF3F
:10A920000000FFFF0000FFFF0000FFFF0000FFFF2F
:10A930000000FFFF00000000000000000000FFFF1B
:10A94000FFFFFFFFFFFFFFFFFFFFFFFF0000FFFF15
:10A950000000FFFF0000FFFF0000000000000000FB
:10A9600000000000000000000000000000000000E7
:10A9700000000000010000000100000001000100D3
:10A9800001000100010001000100010001000000C0
:10A9900000000000000001000100010001000000B3
:10A9A00000000000000000000000000000000000A7
:10A9B0000000FFFF0000FFFF0000FFFF0000FFFF9F
:10A9C0000000FEFF0000FEFF0000FEFF0000FEFF93
:10A9D0000000FEFF0000FEFF0000FEFF0000FEFF83
:10A9E0000000FEFF0000FEFF0000FEFF0000FFFF72
:10A9F0000100FFFF0100FFFF0000FFFF000000005B
:10AA00000100000001000000010000000100000042
:10AA100001000000010000000100FFFF0000FFFF37
:10AA20000000000001000000010000000000000024
:10AA3000000001000100010001000100010001000F
:10AA40000100010001000000000000000000FFFF05
:10AA50000000FFFF0000FDFFFEFFFDFFFEFFFEFF09
:10AA6000FFFFFEFFFFFFFDFFFEFFFDFFFEFFFDFFFF
:10AA7000FEFFFEFFFFFFFEFFFFFFFCFFFDFFFCFFF1
:10AA8000FDFFFEFF0000FEFF0000FDFFFEFFFDFFDB
:10AA9000FEFFFEFFFFFFFEFFFFFFFFFF0000FFFFC7
:10AAA0000000FFFF000001000200010002000000A2
:10AAB000010000000100FFFF0000FFFF0000000098
:10AAC000010000000100FFFF0000FFFF0000FFFF8A
:10AAD00000000000010000000100FFFF0100FFFF77
:10AAE00001000100020001000200FEFFFFFFFEFF67
:10AAF000FFFF0100020001000200FEFFFFFFFEFF5A
:10AB0000FFFFFEFFFFFF0100020001000200010045
:10AB10000100010001000200020002000200010029
:10AB2000010001000100020002000200020000001A
:10AB30000000000000000000000001000100010012
:10AB400001000200020002000200FEFFFFFFFEFF04
:10AB5000FFFFFDFFFFFFFDFFFFFFFCFFFEFFFCFF10
:10AB6000FEFFFCFFFEFFFDFF0000FDFF0000F7FF02
:10AB7000FAFFF7FFFAFFFAFFFDFFFAFFFDFFF6FF0E
:10AB8000F9FFF6FFF9FFFAFFFDFFFAFFFDFFF8FFFF
:10AB9000F9FFF8FFF9FFF8FFF9FFFDFFFDFFFDFFEB
:10ABA000FDFF0000FFFF0000FFFF0100FFFF0100AD
:10ABB000FFFF02000000020000000100FEFF010094
:10ABC000FEFF03000000030000000300000002007D
:10ABD0000000020000000500040005000400010060
:10ABE0000200010002000000030000000300FAFF61
:10ABF000FEFFFAFFFEFFFAFFFEFFFBFF0100FBFF77
:10AC00000100FAFF0000FAFF0000F7FFFEFFF7FF68
:10AC1000FEFFFCFF0200FCFF0200F9FFFEFFF9FF50
:10AC2000FEFFF8FFFDFFF8FFFDFFF8FFFDFFFFFF50
:10AC30000200FFFF02000100040001000400060002
:10AC400008000600080002000400020004000500DD
:10AC500008000500080005000800FEFF0200FEFFD6
:10AC60000200FDFF0300FDFF030002000A000200D6
:10AC70000A00FFFF0900FFFF0900FDFF0800FDFFBC
:10AC80000800F9FF0500F9FF0500F9FF0500F7FFCF
:10AC90000400F7FF0400F5FF0100F5FF0100FBFFD2
:10ACA0000600FBFF0600F4FFFEFFF4FFFEFFFDFFC2
:10ACB0000600FDFF0600FAFF0100FAFF0100FAFF9F
:10ACC0000100FCFF0100FCFF0100FDFF0100FDFF92
:10ACD0000100FCFF0000FCFF0000F7FFFBFFF7FF97
:10ACE000FBFFFAFFFFFFFAFFFFFFFAFFFFFFFDFF89
:10ACF0000200FDFF0200FBFF0200FBFF0200FEFF5F
:10AD00000600FEFF0600FEFF0700FEFF0700F9FF3A
:10AD10000400F9FF0400F5FF0000F5FF0000F5FF57
:10AD2000000000000B0000000B00F4FF0000F4FF27
:10AD30000000FCFF0800FCFF0800FDFF0800FDFF0D
:10AD40000800FDFF0800FDFF0800F5FF0100F5FF0A
:10AD50000100F5FF0100FDFF0800FDFF0800F6FF00
:10AD60000000F6FF0000FAFF0400FAFF04000400F0
:10AD70000E0004000E0000000A0000000A0000009F
:10AD80000A00FBFF0400FBFF0400FBFF0400FBFFC5
:10AD900004000000080000000800F7FFFFFFF7FFB5
:10ADA000FFFFFEFF0600FEFF0600F5FFFEFFF5FFBA
:10ADB000FEFFF5FFFEFFFAFF0400FAFF0400F5FFB7
:10ADC0000100F5FF01000500120005001200FDFF63
:10ADD0000B00FDFF0B000600150006001500F7FF35
:10ADE0000600F7FF0600F7FF0600F9FF0800F9FF6D
:10ADF00008000200100002001000F6FF0200F6FF3B
:10AE000002000C0014000C001400F9FFFFFFF9FF12
:10AE1000FFFFF9FFFFFF0E0010000E0010000B00F7
:10AE20000A000B000A000200FEFF0200FEFF0A00FB
:10AE300003000A0003000300FBFF0300FBFF040004
:10AE4000FBFF0400FBFF0400FBFF0600FDFF060004
:10AE5000FDFF0A0001000A0001000B0003000B00C7
:10AE60000300FBFFF4FFFBFFF4FF12000B001200D6
:10AE70000B000600FFFF0600FFFF0600FFFF0900B2
:10AE80000100090001000F0006000F0006000A0083
:10AE900000000A0000000F0003000F000300030081
:10AEA000F6FF0300F6FF0300F6FF0D0000000D00A3
:10AEB00000000500F9FF0500F9FF0F0005000F0075
:10AEC0000500FBFFF4FFFBFFF4FF06000200060095
:10AED0000200FEFFFEFFFEFFFEFFFEFFFEFFF9FF8A
:10AEE000FCFFF9FFFCFF010008000100080004005E
:10AEF0000D0004000D0009001300090013000900F3
:10AF00001400090014000A0014000A0014000A00CA
:10AF100014000000080000000800040009000400FC
:10AF2000090006000900060009000F000F000F00CD
:10AF30000F00FAFFF8FFFAFFF8FFFAFFF8FF08002A
:10AF40000400080004000A0006000A000600FBFFD7
:10AF5000F6FFFBFFF6FF05000000050000000400FF
:10AF6000FEFF0400FEFFFDFFF6FFFDFFF6FFFDFF05
:10AF7000F6FF0600FEFF0600FEFF0A0001000A00C1
:10AF8000010014000900140009000500F7FF050086
:10AF9000F7FF0A00F9FF0A00F9FF16000300160088
:10AFA0000300160003001B0008001B00080020001F
:10AFB0000D0020000D00130002001300020011001C
:10AFC0000200110002000800FDFF0800FDFF08005C
:10AFD000FDFF0C0005000C000500F7FFF4FFF7FF74
:10AFE000F4FF0B000C000B000C0003000800030032
:10AFF000080005000C0005000C00160020001600DB
:10B0000020001600200013001E0013001E00030085
:10B010000F0003000F0003000F0003000F000C00DF
:10B020001A000C001A00FEFF0D00FEFF0D000E00BE
:10B030001F000E001F000E001F00FEFF1200FEFF8B
:10B040001200F6FF0D00F6FF0D00FDFF1800FDFFDA
:10B050001800F0FF0E00F0FF0E00F6FF1600F6FFDE
:10B060001600F6FF16000800290008002900FFFF5F
:10B070001F00FFFF1F00FBFF1800FBFF1800F6FF7B
:10B080000F00F6FF0F00FEFF1200FEFF1200FAFF96
:10B090000900FAFF0900FAFF090007001100070084
:10B0A000110005000A0005000A0008000A00080057
:10B0B0000A00110012001100120004000500040033
:10B0C000050007000B0007000B0007000B001B002A
:10B0D00023001B0023001700210017002100060099
:10B0E0001400060014000400140004001400ECFF17
:10B0F000FDFFECFFFDFFECFFFDFFFBFF0A00FBFF88
:10B100000A0003000F0003000F000B0013000B00E8
:10B11000130009000C0009000C00150013001500B5
:10B1200013001C0016001C0016001C001600210055
:10B130001900210019000900010009000100100098
:10B140000900100009000E000D000E000D00130094
:10B15000180013001800130018000A0017000A0056
:10B160001700F2FF0700F2FF0700030020000300B2
:10B170002000F1FF1400F1FF1400F8FF2000F8FF99
:10B180002000EFFF1900EFFF1900EFFF19000C007E
:10B1900035000C003500F5FF1B00F5FF1B001A0001
:10B1A0003B001A003B0009002400090024000700AE
:10B1B0001C0007001C000F001F000F001F000F00E5
:10B1C0001F00F6FF0000F6FF00000B0010000B0050
:10B1D0001000F6FFF8FFF6FFF8FF0C000D000C0062
:10B1E0000D00F3FFF3FFF3FFF3FFF3FFF3FFF1FFB6
:10B1F000F1FFF1FFF1FFECFFECFFECFFECFFF3FFE1
:10B20000F4FFF3FFF4FF06000700060007000A0042
:10B210000B000A000B00F9FFFCFFF9FFFCFFF9FF30
:10B22000FCFF0C000F000C000F00FAFFFEFFFAFFFE
:10B23000FEFF08000D0008000D00FFFF0500FFFFE6
:10B240000500F8FF0000F8FF0000FEFF0700FEFF0A
:10B250000700FEFF070004000E0004000E00FAFFC6
:10B260000500FAFF0500D8FFE3FFD8FFE3FF0C005D
:10B2700017000C001700E6FFF0FFE6FFF0FFE6FF07
:10B28000F0FF09001200090012001100190011005E
:10B290001900120019001200190007000D00070024
:10B2A0000D0005000A0005000A00F7FFFDFFF7FF8B
:10B2B000FDFFF7FFFDFFF4FFFAFFF4FFFAFF2400A4
:10B2C0002A0024002A0016001C0016001C0018008A
:10B2D0001E0018001E0016001C0016001C000F00A7
:10B2E00013000F0013000F001300100011001000D6
:10B2F00011001B0017001B001700120009001200AC
:10B30000090011000200110002001000FAFF1000F5
:10B31000FAFF1000FAFF2E0013002E001300250084
:10B3200006002500060039001700390017000D003F
:10B33000EBFF0D00EBFF1D00FDFF1D00FDFF2700D3
:10B340000C0027000C0027000C001000FBFF100071
:10B35000FBFF33002500330025000B0004000B0029
:10B3600004001B001B001B001B0005000B00050058
:10B370000B00F8FF0100F8FF0100F8FF01000600D4
:10B3800010000600100001000A0001000A00FBFF87
:10B390000000FBFF0000FDFFFEFFFDFFFEFFE9FFD9
:10B3A000E3FFE9FFE3FFE9FFE3FFF6FFEAFFF6FF54
:10B3B000EAFF0100EFFF0100EFFF1300FBFF1300A6
:10B3C000FBFF29000D0029000D00220003002200D0
:10B3D00003002900070029000700290007002000BA
:10B3E000FDFF2000FDFF0D00E9FF0D00E9FF1C003F
:10B3F000F7FF1C00F7FF26000000260000002500D4
:10B40000FDFF2500FDFF2F0003002F0003002F008C
:10B4100003002800F8FF2800F8FF1900E5FF1900D5
:10B42000E5FF0700CFFF0700CFFF1A00DFFF1A007C
:10B43000DFFF0A00CEFF0A00CEFF0A00CEFF0D009C
:10B44000D1FF0D00D1FFFAFFC1FFFAFFC1FF2100BC
:10B45000EEFF2100EEFF0D00E1FF0D00E1FFE5FF33
:10B46000C2FFE5FFC2FFE9FFD1FFE9FFD1FFE9FF1E
:10B47000D1FFDDFFD0FFDDFFD0FFEFFFEDFFEFFFDE
:10B48000EDFFD9FFE3FFD9FFE3FFE3FFF6FFE3FFA3
:10B49000F6FFDCFFF7FFDCFFF7FFCBFFEDFFCBFF95
:10B4A000EDFFCBFFEDFFD8FFFFFFD8FFFFFFEAFF67
:10B4B0001500EAFF1500DDFF0D00DDFF0D000000A7
:10B4C000330000003300F7FF2F00F7FF2F00F7FFD6
:10B4D0002F00EFFF2A00EFFF2A00F6FF3700F6FFEC
:10B4E0003700E1FF2700E1FF2700CFFF1900CFFF62
:10B4F0001900DBFF2900DBFF2900CDFF1E00CDFF77
:10B500001E00CDFF1E00CDFF2000CDFF2000D0FF8C
:10B510002000D0FF2000BDFF0B00BDFF0B00B9FFD6
:10B520000000B9FF00009FFFDEFF9FFFDEFFDEFF90
:10B530001400DEFF1400DEFF1400D2FFFDFFD2FF77
:10B54000FDFFCAFFE9FFCAFFE9FFC9FFDFFFC9FF2F
:10B55000DFFFD2FFDEFFD2FFDEFFD2FFD6FFD2FF3A
:10B56000D6FFD2FFD6FFC2FFC1FFC2FFC1FFCFFF90
:10B57000C9FFCFFFC9FFE2FFDAFFE2FFDAFFEEFF0C
:10B58000E4FFEEFFE4FFECFFE1FFECFFE1FFFEFF75
:10B59000F1FFFEFFF1FFFEFFF1FFE8FFDAFFE8FF3A
:10B5A000DAFFE1FFD0FFE1FFD0FFF6FFE0FFF6FF9B
:10B5B000E0FFFBFFE1FFFBFFE1FF0B00ECFF0B00F7
:10B5C000ECFF230000002300000023000000130014
:10B5D000ECFF1300ECFF1600EEFF1600EEFFF6FF87
:10B5E000CFFFF6FFCFFFEDFFC9FFEDFFC9FFEEFF75
:10B5F000CFFFEEFFCFFFEEFFCFFFE5FFCEFFE5FF72
:10B60000CEFFE9FFDAFFE9FFDAFFE6FFE0FFE6FF42
:10B61000E0FFC2FFC3FFC2FFC3FFE3FFEBFFE3FF97
:10B62000EBFFD0FFDCFFD0FFDCFFD0FFDCFFE0FF53
:10B63000ECFFE0FFECFFF9FF0300F9FF0300D2FF8E
:10B64000D7FFD2FFD7FF0A0007000A000700D1FF8B
:10B65000C6FFD1FFC6FFD1FFC6FFF0FFDCFFF0FF42
:10B66000DCFF0100E5FF0100E5FF0F00EDFF0F002B
:10B67000EDFF1A00F3FF1A00F3FF0400DAFF0400E5
:10B68000DAFFFCFFD3FFFCFFD3FFFCFFD3FF020078
:10B69000DAFF0200DAFF0B00E6FF0B00E6FF020014
:10B6A000E1FF0200E1FF0200E5FF0200E5FF0E00FE
:10B6B000F4FF0E00F4FF0600EEFF0600EEFF0600AA
:10B6C000EEFF28001100280011003D0026003D007B
:10B6D0002600FDFFE5FFFDFFE5FF1300FAFF130065
:10B6E000FAFFFEFFE3FFFEFFE3FFFEFFE3FF1600AE
:10B6F000FBFF1600FBFF0E00F2FF0E00F2FF3F0003
:10B7000023003F0023000B00EFFF0B00EFFF1D00A5
:10B7100003001D0003002000080020000800200096
:10B720000800D8FFC1FFD8FFC1FF0900F4FF0900DE
:10B73000F4FFFDFFE9FFFDFFE9FF0700F4FF07004D
:10B74000F4FFE7FFD4FFE7FFD4FF0C00F8FF0C0085
:10B75000F8FF0C00F8FFF6FFE2FFF6FFE2FF030040
:10B76000EEFF0300EEFF0300EEFF0300EEFFF7FF26
:10B77000E1FFF7FFE1FF1500FEFF1500FEFF1500DA
:10B78000FEFF1A0001001A000100F7FFDCFFF7FFBF
:10B79000DCFFF8FFDAFFF8FFDAFFD5FFB4FFD5FFD3
:10B7A000B4FFF0FFCAFFF0FFCAFFEFFFC5FFEFFFD6
:10B7B000C5FFEFFFC5FFE1FFB2FFE1FFB2FFF0FF02
:10B7C000BDFFF0FFBDFFCBFF96FFCBFF96FF05004F
:10B7D000D1FF0500D1FFD1FFA0FFD1FFA0FF1100D5
:10B7E000E6FF1100E6FF1100E6FFFDFFDBFFFDFFB6
:10B7F000DBFF0400EEFF0400EEFF0800000008007D
:10B800000000F0FFF4FFF0FFF4FFEBFFFAFFEBFFA7
:10B81000FAFFEBFFFAFFE2FFFBFFE2FFFBFFE8FFAF
:10B820000600E8FF0600BCFFDBFFBCFFDBFFE8FF14
:10B830000400E8FF0400DEFFF3FFDEFFF3FFEFFF8D
:10B84000FAFFEFFFFAFFEFFFFAFFDAFFDAFFDAFFA6
:10B85000DAFFE5FFD9FFE5FFD9FF0400EFFF0400A1
:10B86000EFFF1100F5FF1100F5FF0600E8FF0600ED
:10B87000E8FF0A00EDFF0A00EDFF0A00EDFF0F00F0
:10B88000F6FF0F00F6FF1500030015000300EFFFA1
:10B89000E5FFEFFFE5FFD4FFD3FFD4FFD3FFE2FFC7
:10B8A000E6FFE2FFE6FFE2FFE6FFDCFFE4FFDCFF8E
:10B8B000E4FF0C0012000C0012001400160014002B
:10B8C0001600F4FFEFFFF4FFEFFF0200F4FF0200A9
:10B8D000F4FF180000001800000018000000060027
:10B8E000E5FF0600E5FF1900F1FF1900F1FF100068
:10B8F000E4FF1000E4FF1300E9FF1300E9FF050077
:10B90000DEFF0500DEFFFCFFDDFFFCFFDDFFFCFFCF
:10B91000DDFFF6FFE2FFF6FFE2FF0800FEFF080092
:10B92000FEFF19001A0019001A00F0FFFBFFF0FFDC
:10B93000FBFFEDFF0000EDFF0000EDFF0000F4FF56
:10B940000C00F4FF0C00CFFFEAFFCFFFEAFFF1FF8E
:10B950000E00F1FF0E00EBFF0900EBFF0900E3FF13
:10B960000200E3FF0200FAFF1B00FAFF1B00FAFFD0
:10B970001B00D0FFF4FFD0FFF4FFDCFF0500DCFF6D
:10B980000500FBFF2900FBFF29000E0041000E000F
:10B990004100E0FF1800E0FF180001003D00010039
:10B9A0003D0001003D00E1FF1D00E1FF1D00D5FF4E
:10B9B0000F00D5FF0F00DFFF1300DFFF1300D9FFDB
:10B9C0000400D9FF0400E1FF0100E1FF0100E1FFF5
:10B9D0000100EDFF0100EDFF01001800200018003C
:10B9E000200015001200150012002A001E002A0077
:10B9F0001E00FBFFE9FFFBFFE9FF1000FAFF10004C
:10BA0000FAFF1000FAFF29001100290011001E00A2
:10BA100006001E0006001200FAFF1200FAFF0000E6
:10BA2000E8FF0000E8FF1500FBFF1500FBFF030027
:10BA3000E7FF0300E7FF0300E7FFF2FFD2FFF2FF9B
:10BA4000D2FF2900040029000400F9FFD0FFF9FF0C
:10BA5000D0FFFAFFCDFFFAFFCDFF1B00ECFF1B006C
:10BA6000ECFF1B00ECFF1100E3FF1100E3FFFEFF02
:10BA7000D5FFFEFFD5FF0300E3FF0300E3FF160041
:10BA80000000160000000F0006000F0006001B005B
:10BA90001F001B001F001B001F000F001E000F00D7
:10BAA0001E000F0028000F002800DBFFF8FFDBFF5F
:10BAB000F8FF0B002A000B002A00E1FFFCFFE1FF6A
:10BAC000FCFFF2FF0700F2FF0700F2FF0700030090
:10BAD0000F0003000F000C000C000C000C0008000D
:10BAE000FEFF0800FEFFF2FFDEFFF2FFDEFF0D00AB
:10BAF000F2FF0D00F2FF0D00F2FF0B00EBFF0B0059
:10BB0000EBFF30000D0030000D00FEFFD9FFFEFFFF
:10BB1000D9FF38001200380012002300FCFF230078
:10BB2000FCFF0800DFFF0800DFFF0800DFFF230045
:10BB3000F5FF2300F5FF2600F1FF2600F1FF2900A5
:10BB4000EBFF2900EBFF1600CEFF1600CEFF23000F
:10BB5000CFFF2300CFFF2300CFFF2F00D2FF2F0006
:10BB6000D2FF1100ACFF1100ACFF6A0002006A00B6
:10BB700002004000D9FF4000D9FF4600E3FF460025
:10BB8000E3FF5400FAFF5400FAFF5400FAFF1D00CF
:10BB9000CFFF1D00CFFF5100110051001100F2FF37
:10BBA000C0FFF2FFC0FF2200FCFF2200FCFF1300D9
:10BBB000F8FF1300F8FF36002100360021003600A0
:10BBC000210031001F0031001F001900070019007B
:10BBD00007001100FBFF1100FBFF1300F8FF13002B
:10BBE000F8FF1500F3FF1500F3FF1500F3FF0D003C
:10BBF000E5FF0D00E5FF2D00FFFF2D00FFFF10000A
